{
	"data": {
		"bytecode": {
			"linkReferences": {},
			"object": "61014a61003a600b82828239805160001a60731461002d57634e487b7160e01b600052600060045260246000fd5b30600052607381538281f3fe73000000000000000000000000000000000000000030146080604052600436106100565760003560e01c8063405bf2751461005b5780636cd2c30a1461009f578063b4797da2146100c6578063c214be59146100ed575b600080fd5b6100827f973bb64086f173ec8099b7ed3d43da984f4a332e4417a08bc6a286e6402b058681565b6040516001600160e01b0319909116815260200160405180910390f35b6100827f8ae85d849167ff996c04040c44924fd364217285e4cad818292c7ac37c0a345b81565b6100827faaaebeba3810b1e6b70781f14b2d72c1cb89c0b2b320c43bb67ff79f562f5ff481565b6100827f73ad2146b3d3a286642c794379d750360a2d53a3459a11b3e5d6cc900f55f44a8156fea264697066735822122039f4ccce1bd7ee3c33b0e9526d22b6468722d4001a393ef79c2dc86d760c4e6364736f6c634300080e0033",
			"opcodes": "PUSH2 0x14A PUSH2 0x3A PUSH1 0xB DUP3 DUP3 DUP3 CODECOPY DUP1 MLOAD PUSH1 0x0 BYTE PUSH1 0x73 EQ PUSH2 0x2D JUMPI PUSH4 0x4E487B71 PUSH1 0xE0 SHL PUSH1 0x0 MSTORE PUSH1 0x0 PUSH1 0x4 MSTORE PUSH1 0x24 PUSH1 0x0 REVERT JUMPDEST ADDRESS PUSH1 0x0 MSTORE PUSH1 0x73 DUP2 MSTORE8 DUP3 DUP2 RETURN INVALID PUSH20 0x0 ADDRESS EQ PUSH1 0x80 PUSH1 0x40 MSTORE PUSH1 0x4 CALLDATASIZE LT PUSH2 0x56 JUMPI PUSH1 0x0 CALLDATALOAD PUSH1 0xE0 SHR DUP1 PUSH4 0x405BF275 EQ PUSH2 0x5B JUMPI DUP1 PUSH4 0x6CD2C30A EQ PUSH2 0x9F JUMPI DUP1 PUSH4 0xB4797DA2 EQ PUSH2 0xC6 JUMPI DUP1 PUSH4 0xC214BE59 EQ PUSH2 0xED JUMPI JUMPDEST PUSH1 0x0 DUP1 REVERT JUMPDEST PUSH2 0x82 PUSH32 0x973BB64086F173EC8099B7ED3D43DA984F4A332E4417A08BC6A286E6402B0586 DUP2 JUMP JUMPDEST PUSH1 0x40 MLOAD PUSH1 0x1 PUSH1 0x1 PUSH1 0xE0 SHL SUB NOT SWAP1 SWAP2 AND DUP2 MSTORE PUSH1 0x20 ADD PUSH1 0x40 MLOAD DUP1 SWAP2 SUB SWAP1 RETURN JUMPDEST PUSH2 0x82 PUSH32 0x8AE85D849167FF996C04040C44924FD364217285E4CAD818292C7AC37C0A345B DUP2 JUMP JUMPDEST PUSH2 0x82 PUSH32 0xAAAEBEBA3810B1E6B70781F14B2D72C1CB89C0B2B320C43BB67FF79F562F5FF4 DUP2 JUMP JUMPDEST PUSH2 0x82 PUSH32 0x73AD2146B3D3A286642C794379D750360A2D53A3459A11B3E5D6CC900F55F44A DUP2 JUMP INVALID LOG2 PUSH5 0x6970667358 0x22 SLT KECCAK256 CODECOPY DELEGATECALL 0xCC 0xCE SHL 0xD7 0xEE EXTCODECOPY CALLER 0xB0 0xE9 MSTORE PUSH14 0x22B6468722D4001A393EF79C2DC8 PUSH14 0x760C4E6364736F6C634300080E00 CALLER "
		},
		"gasEstimates": {
			"creation": {
				"codeDepositCost": "66000",
				"executionCost": "148",
				"totalCost": "66148"
			},
			"external": {
				"ERC1155_ASSET_CLASS()": "169",
				"ERC20_ASSET_CLASS()": "191",
				"ERC721_ASSET_CLASS()": "235",
				"ETH_ASSET_CLASS()": "213"
			},
			"internal": {
				"hash(struct LibAsset.Asset memory)": "infinite",
				"hash(struct LibAsset.AssetType memory)": "infinite"
			}
		},
		"methodIdentifiers": {
			"ERC1155_ASSET_CLASS()": "405bf275",
			"ERC20_ASSET_CLASS()": "6cd2c30a",
			"ERC721_ASSET_CLASS()": "c214be59",
			"ETH_ASSET_CLASS()": "b4797da2"
		}
	},
	"abi": [
		{
			"inputs": [],
			"name": "ERC1155_ASSET_CLASS",
			"outputs": [
				{
					"internalType": "bytes4",
					"name": "",
					"type": "bytes4"
				}
			],
			"stateMutability": "view",
			"type": "function"
		},
		{
			"inputs": [],
			"name": "ERC20_ASSET_CLASS",
			"outputs": [
				{
					"internalType": "bytes4",
					"name": "",
					"type": "bytes4"
				}
			],
			"stateMutability": "view",
			"type": "function"
		},
		{
			"inputs": [],
			"name": "ERC721_ASSET_CLASS",
			"outputs": [
				{
					"internalType": "bytes4",
					"name": "",
					"type": "bytes4"
				}
			],
			"stateMutability": "view",
			"type": "function"
		},
		{
			"inputs": [],
			"name": "ETH_ASSET_CLASS",
			"outputs": [
				{
					"internalType": "bytes4",
					"name": "",
					"type": "bytes4"
				}
			],
			"stateMutability": "view",
			"type": "function"
		}
	]
}