{
	"contracts/CheckEncode.sol": {
		"CheckEncode": {
			"abi": [
				{
					"inputs": [
						{
							"internalType": "bytes",
							"name": "data",
							"type": "bytes"
						}
					],
					"name": "checkEncodeMakerAsset",
					"outputs": [
						{
							"internalType": "address",
							"name": "",
							"type": "address"
						},
						{
							"internalType": "uint256",
							"name": "",
							"type": "uint256"
						}
					],
					"stateMutability": "nonpayable",
					"type": "function"
				},
				{
					"inputs": [
						{
							"internalType": "bytes",
							"name": "data",
							"type": "bytes"
						}
					],
					"name": "checkEncodeTakerAsset",
					"outputs": [
						{
							"internalType": "address",
							"name": "",
							"type": "address"
						}
					],
					"stateMutability": "nonpayable",
					"type": "function"
				}
			],
			"devdoc": {
				"kind": "dev",
				"methods": {},
				"version": 1
			},
			"evm": {
				"assembly": "    /* \"contracts/CheckEncode.sol\":57:434  contract CheckEncode {... */\n  mstore(0x40, 0x80)\n  callvalue\n  dup1\n  iszero\n  tag_1\n  jumpi\n  0x00\n  dup1\n  revert\ntag_1:\n  pop\n  dataSize(sub_0)\n  dup1\n  dataOffset(sub_0)\n  0x00\n  codecopy\n  0x00\n  return\nstop\n\nsub_0: assembly {\n        /* \"contracts/CheckEncode.sol\":57:434  contract CheckEncode {... */\n      mstore(0x40, 0x80)\n      callvalue\n      dup1\n      iszero\n      tag_1\n      jumpi\n      0x00\n      dup1\n      revert\n    tag_1:\n      pop\n      jumpi(tag_2, lt(calldatasize, 0x04))\n      shr(0xe0, calldataload(0x00))\n      dup1\n      0x1f2aaa34\n      eq\n      tag_3\n      jumpi\n      dup1\n      0xa325bfb6\n      eq\n      tag_4\n      jumpi\n    tag_2:\n      0x00\n      dup1\n      revert\n        /* \"contracts/CheckEncode.sol\":277:431  function checkEncodeTakerAsset(bytes memory data) public returns(address) {... */\n    tag_3:\n      tag_5\n      tag_6\n      calldatasize\n      0x04\n      tag_7\n      jump\t// in\n    tag_6:\n      tag_8\n      jump\t// in\n    tag_5:\n      mload(0x40)\n      sub(shl(0xa0, 0x01), 0x01)\n        /* \"#utility.yul\":1236:1268   */\n      swap1\n      swap2\n      and\n        /* \"#utility.yul\":1218:1269   */\n      dup2\n      mstore\n        /* \"#utility.yul\":1206:1208   */\n      0x20\n        /* \"#utility.yul\":1191:1209   */\n      add\n        /* \"contracts/CheckEncode.sol\":277:431  function checkEncodeTakerAsset(bytes memory data) public returns(address) {... */\n    tag_9:\n      mload(0x40)\n      dup1\n      swap2\n      sub\n      swap1\n      return\n        /* \"contracts/CheckEncode.sol\":84:273  function checkEncodeMakerAsset(bytes memory data) public returns (address, uint256){... */\n    tag_4:\n      tag_11\n      tag_12\n      calldatasize\n      0x04\n      tag_7\n      jump\t// in\n    tag_12:\n      tag_13\n      jump\t// in\n    tag_11:\n      0x40\n      dup1\n      mload\n      sub(shl(0xa0, 0x01), 0x01)\n        /* \"#utility.yul\":1472:1504   */\n      swap1\n      swap4\n      and\n        /* \"#utility.yul\":1454:1505   */\n      dup4\n      mstore\n        /* \"#utility.yul\":1536:1538   */\n      0x20\n        /* \"#utility.yul\":1521:1539   */\n      dup4\n      add\n        /* \"#utility.yul\":1514:1548   */\n      swap2\n      swap1\n      swap2\n      mstore\n        /* \"#utility.yul\":1427:1445   */\n      add\n        /* \"contracts/CheckEncode.sol\":84:273  function checkEncodeMakerAsset(bytes memory data) public returns (address, uint256){... */\n      tag_9\n        /* \"#utility.yul\":1280:1554   */\n      jump\n        /* \"contracts/CheckEncode.sol\":277:431  function checkEncodeTakerAsset(bytes memory data) public returns(address) {... */\n    tag_8:\n        /* \"contracts/CheckEncode.sol\":342:349  address */\n      0x00\n        /* \"contracts/CheckEncode.sol\":358:374  address buyToken */\n      dup1\n        /* \"contracts/CheckEncode.sol\":389:393  data */\n      dup3\n        /* \"contracts/CheckEncode.sol\":378:405  abi.decode(data, (address)) */\n      dup1\n      0x20\n      add\n      swap1\n      mload\n      dup2\n      add\n      swap1\n      tag_17\n      swap2\n      swap1\n      tag_18\n      jump\t// in\n    tag_17:\n        /* \"contracts/CheckEncode.sol\":357:405  (address buyToken) = abi.decode(data, (address)) */\n      swap4\n        /* \"contracts/CheckEncode.sol\":277:431  function checkEncodeTakerAsset(bytes memory data) public returns(address) {... */\n      swap3\n      pop\n      pop\n      pop\n      jump\t// out\n        /* \"contracts/CheckEncode.sol\":84:273  function checkEncodeMakerAsset(bytes memory data) public returns (address, uint256){... */\n    tag_13:\n        /* \"contracts/CheckEncode.sol\":150:157  address */\n      0x00\n        /* \"contracts/CheckEncode.sol\":159:166  uint256 */\n      dup1\n        /* \"contracts/CheckEncode.sol\":174:187  address token */\n      0x00\n        /* \"contracts/CheckEncode.sol\":189:201  uint tokenId */\n      dup1\n        /* \"contracts/CheckEncode.sol\":216:220  data */\n      dup5\n        /* \"contracts/CheckEncode.sol\":205:238  abi.decode(data, (address, uint)) */\n      dup1\n      0x20\n      add\n      swap1\n      mload\n      dup2\n      add\n      swap1\n      tag_20\n      swap2\n      swap1\n      tag_21\n      jump\t// in\n    tag_20:\n        /* \"contracts/CheckEncode.sol\":173:238  (address token, uint tokenId) = abi.decode(data, (address, uint)) */\n      swap1\n      swap7\n      swap1\n      swap6\n      pop\n        /* \"contracts/CheckEncode.sol\":84:273  function checkEncodeMakerAsset(bytes memory data) public returns (address, uint256){... */\n      swap4\n      pop\n      pop\n      pop\n      pop\n      jump\t// out\n        /* \"#utility.yul\":14:141   */\n    tag_22:\n        /* \"#utility.yul\":75:85   */\n      0x4e487b71\n        /* \"#utility.yul\":70:73   */\n      0xe0\n        /* \"#utility.yul\":66:86   */\n      shl\n        /* \"#utility.yul\":63:64   */\n      0x00\n        /* \"#utility.yul\":56:87   */\n      mstore\n        /* \"#utility.yul\":106:110   */\n      0x41\n        /* \"#utility.yul\":103:104   */\n      0x04\n        /* \"#utility.yul\":96:111   */\n      mstore\n        /* \"#utility.yul\":130:134   */\n      0x24\n        /* \"#utility.yul\":127:128   */\n      0x00\n        /* \"#utility.yul\":120:135   */\n      revert\n        /* \"#utility.yul\":146:1067   */\n    tag_7:\n        /* \"#utility.yul\":214:220   */\n      0x00\n        /* \"#utility.yul\":267:269   */\n      0x20\n        /* \"#utility.yul\":255:264   */\n      dup3\n        /* \"#utility.yul\":246:253   */\n      dup5\n        /* \"#utility.yul\":242:265   */\n      sub\n        /* \"#utility.yul\":238:270   */\n      slt\n        /* \"#utility.yul\":235:287   */\n      iszero\n      tag_27\n      jumpi\n        /* \"#utility.yul\":283:284   */\n      0x00\n        /* \"#utility.yul\":280:281   */\n      dup1\n        /* \"#utility.yul\":273:285   */\n      revert\n        /* \"#utility.yul\":235:287   */\n    tag_27:\n        /* \"#utility.yul\":323:332   */\n      dup2\n        /* \"#utility.yul\":310:333   */\n      calldataload\n        /* \"#utility.yul\":352:370   */\n      0xffffffffffffffff\n        /* \"#utility.yul\":393:395   */\n      dup1\n        /* \"#utility.yul\":385:391   */\n      dup3\n        /* \"#utility.yul\":382:396   */\n      gt\n        /* \"#utility.yul\":379:413   */\n      iszero\n      tag_28\n      jumpi\n        /* \"#utility.yul\":409:410   */\n      0x00\n        /* \"#utility.yul\":406:407   */\n      dup1\n        /* \"#utility.yul\":399:411   */\n      revert\n        /* \"#utility.yul\":379:413   */\n    tag_28:\n        /* \"#utility.yul\":447:453   */\n      dup2\n        /* \"#utility.yul\":436:445   */\n      dup5\n        /* \"#utility.yul\":432:454   */\n      add\n        /* \"#utility.yul\":422:454   */\n      swap2\n      pop\n        /* \"#utility.yul\":492:499   */\n      dup5\n        /* \"#utility.yul\":485:489   */\n      0x1f\n        /* \"#utility.yul\":481:483   */\n      dup4\n        /* \"#utility.yul\":477:490   */\n      add\n        /* \"#utility.yul\":473:500   */\n      slt\n        /* \"#utility.yul\":463:518   */\n      tag_29\n      jumpi\n        /* \"#utility.yul\":514:515   */\n      0x00\n        /* \"#utility.yul\":511:512   */\n      dup1\n        /* \"#utility.yul\":504:516   */\n      revert\n        /* \"#utility.yul\":463:518   */\n    tag_29:\n        /* \"#utility.yul\":550:552   */\n      dup2\n        /* \"#utility.yul\":537:553   */\n      calldataload\n        /* \"#utility.yul\":572:574   */\n      dup2\n        /* \"#utility.yul\":568:570   */\n      dup2\n        /* \"#utility.yul\":565:575   */\n      gt\n        /* \"#utility.yul\":562:598   */\n      iszero\n      tag_31\n      jumpi\n        /* \"#utility.yul\":578:596   */\n      tag_31\n      tag_22\n      jump\t// in\n    tag_31:\n        /* \"#utility.yul\":653:655   */\n      0x40\n        /* \"#utility.yul\":647:656   */\n      mload\n        /* \"#utility.yul\":621:623   */\n      0x1f\n        /* \"#utility.yul\":707:720   */\n      dup3\n      add\n      not(0x1f)\n        /* \"#utility.yul\":703:725   */\n      swap1\n      dup2\n      and\n        /* \"#utility.yul\":727:729   */\n      0x3f\n        /* \"#utility.yul\":699:730   */\n      add\n        /* \"#utility.yul\":695:735   */\n      and\n        /* \"#utility.yul\":683:736   */\n      dup2\n      add\n      swap1\n        /* \"#utility.yul\":751:769   */\n      dup4\n      dup3\n      gt\n        /* \"#utility.yul\":771:793   */\n      dup2\n      dup4\n      lt\n        /* \"#utility.yul\":748:794   */\n      or\n        /* \"#utility.yul\":745:817   */\n      iszero\n      tag_33\n      jumpi\n        /* \"#utility.yul\":797:815   */\n      tag_33\n      tag_22\n      jump\t// in\n    tag_33:\n        /* \"#utility.yul\":837:847   */\n      dup2\n        /* \"#utility.yul\":833:835   */\n      0x40\n        /* \"#utility.yul\":826:848   */\n      mstore\n        /* \"#utility.yul\":872:874   */\n      dup3\n        /* \"#utility.yul\":864:870   */\n      dup2\n        /* \"#utility.yul\":857:875   */\n      mstore\n        /* \"#utility.yul\":912:919   */\n      dup8\n        /* \"#utility.yul\":907:909   */\n      0x20\n        /* \"#utility.yul\":902:904   */\n      dup5\n        /* \"#utility.yul\":898:900   */\n      dup8\n        /* \"#utility.yul\":894:905   */\n      add\n        /* \"#utility.yul\":890:910   */\n      add\n        /* \"#utility.yul\":887:920   */\n      gt\n        /* \"#utility.yul\":884:937   */\n      iszero\n      tag_34\n      jumpi\n        /* \"#utility.yul\":933:934   */\n      0x00\n        /* \"#utility.yul\":930:931   */\n      dup1\n        /* \"#utility.yul\":923:935   */\n      revert\n        /* \"#utility.yul\":884:937   */\n    tag_34:\n        /* \"#utility.yul\":989:991   */\n      dup3\n        /* \"#utility.yul\":984:986   */\n      0x20\n        /* \"#utility.yul\":980:982   */\n      dup7\n        /* \"#utility.yul\":976:987   */\n      add\n        /* \"#utility.yul\":971:973   */\n      0x20\n        /* \"#utility.yul\":963:969   */\n      dup4\n        /* \"#utility.yul\":959:974   */\n      add\n        /* \"#utility.yul\":946:992   */\n      calldatacopy\n        /* \"#utility.yul\":1034:1035   */\n      0x00\n        /* \"#utility.yul\":1012:1027   */\n      swap3\n      dup2\n      add\n        /* \"#utility.yul\":1029:1031   */\n      0x20\n        /* \"#utility.yul\":1008:1032   */\n      add\n        /* \"#utility.yul\":1001:1036   */\n      swap3\n      swap1\n      swap3\n      mstore\n      pop\n        /* \"#utility.yul\":1016:1022   */\n      swap6\n        /* \"#utility.yul\":146:1067   */\n      swap5\n      pop\n      pop\n      pop\n      pop\n      pop\n      jump\t// out\n        /* \"#utility.yul\":1559:1744   */\n    tag_23:\n        /* \"#utility.yul\":1646:1659   */\n      dup1\n      mload\n      sub(shl(0xa0, 0x01), 0x01)\n        /* \"#utility.yul\":1688:1719   */\n      dup2\n      and\n        /* \"#utility.yul\":1678:1720   */\n      dup2\n      eq\n        /* \"#utility.yul\":1668:1738   */\n      tag_38\n      jumpi\n        /* \"#utility.yul\":1734:1735   */\n      0x00\n        /* \"#utility.yul\":1731:1732   */\n      dup1\n        /* \"#utility.yul\":1724:1736   */\n      revert\n        /* \"#utility.yul\":1668:1738   */\n    tag_38:\n        /* \"#utility.yul\":1559:1744   */\n      swap2\n      swap1\n      pop\n      jump\t// out\n        /* \"#utility.yul\":1749:1973   */\n    tag_18:\n        /* \"#utility.yul\":1827:1833   */\n      0x00\n        /* \"#utility.yul\":1880:1882   */\n      0x20\n        /* \"#utility.yul\":1868:1877   */\n      dup3\n        /* \"#utility.yul\":1859:1866   */\n      dup5\n        /* \"#utility.yul\":1855:1878   */\n      sub\n        /* \"#utility.yul\":1851:1883   */\n      slt\n        /* \"#utility.yul\":1848:1900   */\n      iszero\n      tag_40\n      jumpi\n        /* \"#utility.yul\":1896:1897   */\n      0x00\n        /* \"#utility.yul\":1893:1894   */\n      dup1\n        /* \"#utility.yul\":1886:1898   */\n      revert\n        /* \"#utility.yul\":1848:1900   */\n    tag_40:\n        /* \"#utility.yul\":1919:1967   */\n      tag_17\n        /* \"#utility.yul\":1957:1966   */\n      dup3\n        /* \"#utility.yul\":1919:1967   */\n      tag_23\n      jump\t// in\n        /* \"#utility.yul\":1978:2263   */\n    tag_21:\n        /* \"#utility.yul\":2065:2071   */\n      0x00\n        /* \"#utility.yul\":2073:2079   */\n      dup1\n        /* \"#utility.yul\":2126:2128   */\n      0x40\n        /* \"#utility.yul\":2114:2123   */\n      dup4\n        /* \"#utility.yul\":2105:2112   */\n      dup6\n        /* \"#utility.yul\":2101:2124   */\n      sub\n        /* \"#utility.yul\":2097:2129   */\n      slt\n        /* \"#utility.yul\":2094:2146   */\n      iszero\n      tag_43\n      jumpi\n        /* \"#utility.yul\":2142:2143   */\n      0x00\n        /* \"#utility.yul\":2139:2140   */\n      dup1\n        /* \"#utility.yul\":2132:2144   */\n      revert\n        /* \"#utility.yul\":2094:2146   */\n    tag_43:\n        /* \"#utility.yul\":2165:2213   */\n      tag_44\n        /* \"#utility.yul\":2203:2212   */\n      dup4\n        /* \"#utility.yul\":2165:2213   */\n      tag_23\n      jump\t// in\n    tag_44:\n        /* \"#utility.yul\":2155:2213   */\n      swap2\n      pop\n        /* \"#utility.yul\":2253:2255   */\n      0x20\n        /* \"#utility.yul\":2242:2251   */\n      dup4\n        /* \"#utility.yul\":2238:2256   */\n      add\n        /* \"#utility.yul\":2232:2257   */\n      mload\n        /* \"#utility.yul\":2222:2257   */\n      swap1\n      pop\n        /* \"#utility.yul\":1978:2263   */\n      swap3\n      pop\n      swap3\n      swap1\n      pop\n      jump\t// out\n\n    auxdata: 0xa26469706673582212204c0cb5348bca6527cdab834b99f57b61989bdd31d6347c60c04fffc95684cfab64736f6c634300080e0033\n}\n",
				"bytecode": {
					"linkReferences": {},
					"object": "608060405234801561001057600080fd5b50610241806100206000396000f3fe608060405234801561001057600080fd5b50600436106100365760003560e01c80631f2aaa341461003b578063a325bfb61461006b575b600080fd5b61004e6100493660046100f7565b61009d565b6040516001600160a01b0390911681526020015b60405180910390f35b61007e6100793660046100f7565b6100bb565b604080516001600160a01b039093168352602083019190915201610062565b600080828060200190518101906100b491906101c4565b9392505050565b600080600080848060200190518101906100d591906101df565b90969095509350505050565b634e487b7160e01b600052604160045260246000fd5b60006020828403121561010957600080fd5b813567ffffffffffffffff8082111561012157600080fd5b818401915084601f83011261013557600080fd5b813581811115610147576101476100e1565b604051601f8201601f19908116603f0116810190838211818310171561016f5761016f6100e1565b8160405282815287602084870101111561018857600080fd5b826020860160208301376000928101602001929092525095945050505050565b80516001600160a01b03811681146101bf57600080fd5b919050565b6000602082840312156101d657600080fd5b6100b4826101a8565b600080604083850312156101f257600080fd5b6101fb836101a8565b915060208301519050925092905056fea26469706673582212204c0cb5348bca6527cdab834b99f57b61989bdd31d6347c60c04fffc95684cfab64736f6c634300080e0033",
					"opcodes": "PUSH1 0x80 PUSH1 0x40 MSTORE CALLVALUE DUP1 ISZERO PUSH2 0x10 JUMPI PUSH1 0x0 DUP1 REVERT JUMPDEST POP PUSH2 0x241 DUP1 PUSH2 0x20 PUSH1 0x0 CODECOPY PUSH1 0x0 RETURN INVALID PUSH1 0x80 PUSH1 0x40 MSTORE CALLVALUE DUP1 ISZERO PUSH2 0x10 JUMPI PUSH1 0x0 DUP1 REVERT JUMPDEST POP PUSH1 0x4 CALLDATASIZE LT PUSH2 0x36 JUMPI PUSH1 0x0 CALLDATALOAD PUSH1 0xE0 SHR DUP1 PUSH4 0x1F2AAA34 EQ PUSH2 0x3B JUMPI DUP1 PUSH4 0xA325BFB6 EQ PUSH2 0x6B JUMPI JUMPDEST PUSH1 0x0 DUP1 REVERT JUMPDEST PUSH2 0x4E PUSH2 0x49 CALLDATASIZE PUSH1 0x4 PUSH2 0xF7 JUMP JUMPDEST PUSH2 0x9D JUMP JUMPDEST PUSH1 0x40 MLOAD PUSH1 0x1 PUSH1 0x1 PUSH1 0xA0 SHL SUB SWAP1 SWAP2 AND DUP2 MSTORE PUSH1 0x20 ADD JUMPDEST PUSH1 0x40 MLOAD DUP1 SWAP2 SUB SWAP1 RETURN JUMPDEST PUSH2 0x7E PUSH2 0x79 CALLDATASIZE PUSH1 0x4 PUSH2 0xF7 JUMP JUMPDEST PUSH2 0xBB JUMP JUMPDEST PUSH1 0x40 DUP1 MLOAD PUSH1 0x1 PUSH1 0x1 PUSH1 0xA0 SHL SUB SWAP1 SWAP4 AND DUP4 MSTORE PUSH1 0x20 DUP4 ADD SWAP2 SWAP1 SWAP2 MSTORE ADD PUSH2 0x62 JUMP JUMPDEST PUSH1 0x0 DUP1 DUP3 DUP1 PUSH1 0x20 ADD SWAP1 MLOAD DUP2 ADD SWAP1 PUSH2 0xB4 SWAP2 SWAP1 PUSH2 0x1C4 JUMP JUMPDEST SWAP4 SWAP3 POP POP POP JUMP JUMPDEST PUSH1 0x0 DUP1 PUSH1 0x0 DUP1 DUP5 DUP1 PUSH1 0x20 ADD SWAP1 MLOAD DUP2 ADD SWAP1 PUSH2 0xD5 SWAP2 SWAP1 PUSH2 0x1DF JUMP JUMPDEST SWAP1 SWAP7 SWAP1 SWAP6 POP SWAP4 POP POP POP POP JUMP JUMPDEST PUSH4 0x4E487B71 PUSH1 0xE0 SHL PUSH1 0x0 MSTORE PUSH1 0x41 PUSH1 0x4 MSTORE PUSH1 0x24 PUSH1 0x0 REVERT JUMPDEST PUSH1 0x0 PUSH1 0x20 DUP3 DUP5 SUB SLT ISZERO PUSH2 0x109 JUMPI PUSH1 0x0 DUP1 REVERT JUMPDEST DUP2 CALLDATALOAD PUSH8 0xFFFFFFFFFFFFFFFF DUP1 DUP3 GT ISZERO PUSH2 0x121 JUMPI PUSH1 0x0 DUP1 REVERT JUMPDEST DUP2 DUP5 ADD SWAP2 POP DUP5 PUSH1 0x1F DUP4 ADD SLT PUSH2 0x135 JUMPI PUSH1 0x0 DUP1 REVERT JUMPDEST DUP2 CALLDATALOAD DUP2 DUP2 GT ISZERO PUSH2 0x147 JUMPI PUSH2 0x147 PUSH2 0xE1 JUMP JUMPDEST PUSH1 0x40 MLOAD PUSH1 0x1F DUP3 ADD PUSH1 0x1F NOT SWAP1 DUP2 AND PUSH1 0x3F ADD AND DUP2 ADD SWAP1 DUP4 DUP3 GT DUP2 DUP4 LT OR ISZERO PUSH2 0x16F JUMPI PUSH2 0x16F PUSH2 0xE1 JUMP JUMPDEST DUP2 PUSH1 0x40 MSTORE DUP3 DUP2 MSTORE DUP8 PUSH1 0x20 DUP5 DUP8 ADD ADD GT ISZERO PUSH2 0x188 JUMPI PUSH1 0x0 DUP1 REVERT JUMPDEST DUP3 PUSH1 0x20 DUP7 ADD PUSH1 0x20 DUP4 ADD CALLDATACOPY PUSH1 0x0 SWAP3 DUP2 ADD PUSH1 0x20 ADD SWAP3 SWAP1 SWAP3 MSTORE POP SWAP6 SWAP5 POP POP POP POP POP JUMP JUMPDEST DUP1 MLOAD PUSH1 0x1 PUSH1 0x1 PUSH1 0xA0 SHL SUB DUP2 AND DUP2 EQ PUSH2 0x1BF JUMPI PUSH1 0x0 DUP1 REVERT JUMPDEST SWAP2 SWAP1 POP JUMP JUMPDEST PUSH1 0x0 PUSH1 0x20 DUP3 DUP5 SUB SLT ISZERO PUSH2 0x1D6 JUMPI PUSH1 0x0 DUP1 REVERT JUMPDEST PUSH2 0xB4 DUP3 PUSH2 0x1A8 JUMP JUMPDEST PUSH1 0x0 DUP1 PUSH1 0x40 DUP4 DUP6 SUB SLT ISZERO PUSH2 0x1F2 JUMPI PUSH1 0x0 DUP1 REVERT JUMPDEST PUSH2 0x1FB DUP4 PUSH2 0x1A8 JUMP JUMPDEST SWAP2 POP PUSH1 0x20 DUP4 ADD MLOAD SWAP1 POP SWAP3 POP SWAP3 SWAP1 POP JUMP INVALID LOG2 PUSH5 0x6970667358 0x22 SLT KECCAK256 0x4C 0xC 0xB5 CALLVALUE DUP12 0xCA PUSH6 0x27CDAB834B99 CREATE2 PUSH28 0x61989BDD31D6347C60C04FFFC95684CFAB64736F6C634300080E0033 "
				},
				"gasEstimates": {
					"creation": {
						"codeDepositCost": "115400",
						"executionCost": "165",
						"totalCost": "115565"
					},
					"external": {
						"checkEncodeMakerAsset(bytes)": "infinite",
						"checkEncodeTakerAsset(bytes)": "infinite"
					}
				},
				"methodIdentifiers": {
					"checkEncodeMakerAsset(bytes)": "a325bfb6",
					"checkEncodeTakerAsset(bytes)": "1f2aaa34"
				}
			},
			"storageLayout": {
				"storage": [],
				"types": null
			},
			"userdoc": {
				"kind": "user",
				"methods": {},
				"version": 1
			}
		}
	}
}