{
	"contracts/CheckEncode.sol": {
		"CheckEncode": {
			"abi": [
				{
					"inputs": [
						{
							"internalType": "bytes",
							"name": "data",
							"type": "bytes"
						}
					],
					"name": "checkEncodeMakerAsset",
					"outputs": [
						{
							"internalType": "address",
							"name": "",
							"type": "address"
						},
						{
							"internalType": "uint256",
							"name": "",
							"type": "uint256"
						}
					],
					"stateMutability": "pure",
					"type": "function"
				},
				{
					"inputs": [
						{
							"internalType": "bytes",
							"name": "data",
							"type": "bytes"
						}
					],
					"name": "checkEncodeTakerAsset",
					"outputs": [
						{
							"internalType": "address",
							"name": "",
							"type": "address"
						}
					],
					"stateMutability": "pure",
					"type": "function"
				}
			],
			"devdoc": {
				"kind": "dev",
				"methods": {},
				"version": 1
			},
			"evm": {
				"assembly": "    /* \"contracts/CheckEncode.sol\":57:444  contract CheckEncode {... */\n  mstore(0x40, 0x80)\n  callvalue\n  dup1\n  iszero\n  tag_1\n  jumpi\n  0x00\n  dup1\n  revert\ntag_1:\n  pop\n  dataSize(sub_0)\n  dup1\n  dataOffset(sub_0)\n  0x00\n  codecopy\n  0x00\n  return\nstop\n\nsub_0: assembly {\n        /* \"contracts/CheckEncode.sol\":57:444  contract CheckEncode {... */\n      mstore(0x40, 0x80)\n      callvalue\n      dup1\n      iszero\n      tag_1\n      jumpi\n      0x00\n      dup1\n      revert\n    tag_1:\n      pop\n      jumpi(tag_2, lt(calldatasize, 0x04))\n      shr(0xe0, calldataload(0x00))\n      dup1\n      0x1f2aaa34\n      eq\n      tag_3\n      jumpi\n      dup1\n      0xa325bfb6\n      eq\n      tag_4\n      jumpi\n    tag_2:\n      0x00\n      dup1\n      revert\n        /* \"contracts/CheckEncode.sol\":282:441  function checkEncodeTakerAsset(bytes memory data) public pure returns(address) {... */\n    tag_3:\n      tag_5\n      0x04\n      dup1\n      calldatasize\n      sub\n      dup2\n      add\n      swap1\n      tag_6\n      swap2\n      swap1\n      tag_7\n      jump\t// in\n    tag_6:\n      tag_8\n      jump\t// in\n    tag_5:\n      mload(0x40)\n      tag_9\n      swap2\n      swap1\n      tag_10\n      jump\t// in\n    tag_9:\n      mload(0x40)\n      dup1\n      swap2\n      sub\n      swap1\n      return\n        /* \"contracts/CheckEncode.sol\":84:278  function checkEncodeMakerAsset(bytes memory data) public pure returns (address, uint256){... */\n    tag_4:\n      tag_11\n      0x04\n      dup1\n      calldatasize\n      sub\n      dup2\n      add\n      swap1\n      tag_12\n      swap2\n      swap1\n      tag_7\n      jump\t// in\n    tag_12:\n      tag_13\n      jump\t// in\n    tag_11:\n      mload(0x40)\n      tag_14\n      swap3\n      swap2\n      swap1\n      tag_15\n      jump\t// in\n    tag_14:\n      mload(0x40)\n      dup1\n      swap2\n      sub\n      swap1\n      return\n        /* \"contracts/CheckEncode.sol\":282:441  function checkEncodeTakerAsset(bytes memory data) public pure returns(address) {... */\n    tag_8:\n        /* \"contracts/CheckEncode.sol\":352:359  address */\n      0x00\n        /* \"contracts/CheckEncode.sol\":368:384  address buyToken */\n      dup1\n        /* \"contracts/CheckEncode.sol\":399:403  data */\n      dup3\n        /* \"contracts/CheckEncode.sol\":388:415  abi.decode(data, (address)) */\n      dup1\n      0x20\n      add\n      swap1\n      mload\n      dup2\n      add\n      swap1\n      tag_17\n      swap2\n      swap1\n      tag_18\n      jump\t// in\n    tag_17:\n        /* \"contracts/CheckEncode.sol\":367:415  (address buyToken) = abi.decode(data, (address)) */\n      swap1\n      pop\n        /* \"contracts/CheckEncode.sol\":428:436  buyToken */\n      dup1\n        /* \"contracts/CheckEncode.sol\":421:436  return buyToken */\n      swap2\n      pop\n      pop\n        /* \"contracts/CheckEncode.sol\":282:441  function checkEncodeTakerAsset(bytes memory data) public pure returns(address) {... */\n      swap2\n      swap1\n      pop\n      jump\t// out\n        /* \"contracts/CheckEncode.sol\":84:278  function checkEncodeMakerAsset(bytes memory data) public pure returns (address, uint256){... */\n    tag_13:\n        /* \"contracts/CheckEncode.sol\":155:162  address */\n      0x00\n        /* \"contracts/CheckEncode.sol\":164:171  uint256 */\n      dup1\n        /* \"contracts/CheckEncode.sol\":179:192  address token */\n      0x00\n        /* \"contracts/CheckEncode.sol\":194:206  uint tokenId */\n      dup1\n        /* \"contracts/CheckEncode.sol\":221:225  data */\n      dup5\n        /* \"contracts/CheckEncode.sol\":210:243  abi.decode(data, (address, uint)) */\n      dup1\n      0x20\n      add\n      swap1\n      mload\n      dup2\n      add\n      swap1\n      tag_20\n      swap2\n      swap1\n      tag_21\n      jump\t// in\n    tag_20:\n        /* \"contracts/CheckEncode.sol\":178:243  (address token, uint tokenId) = abi.decode(data, (address, uint)) */\n      swap2\n      pop\n      swap2\n      pop\n        /* \"contracts/CheckEncode.sol\":258:263  token */\n      dup2\n        /* \"contracts/CheckEncode.sol\":265:272  tokenId */\n      dup2\n        /* \"contracts/CheckEncode.sol\":250:273  return (token, tokenId) */\n      swap4\n      pop\n      swap4\n      pop\n      pop\n      pop\n        /* \"contracts/CheckEncode.sol\":84:278  function checkEncodeMakerAsset(bytes memory data) public pure returns (address, uint256){... */\n      swap2\n      pop\n      swap2\n      jump\t// out\n        /* \"#utility.yul\":7:417   */\n    tag_23:\n        /* \"#utility.yul\":84:89   */\n      0x00\n        /* \"#utility.yul\":109:174   */\n      tag_25\n        /* \"#utility.yul\":125:173   */\n      tag_26\n        /* \"#utility.yul\":166:172   */\n      dup5\n        /* \"#utility.yul\":125:173   */\n      tag_27\n      jump\t// in\n    tag_26:\n        /* \"#utility.yul\":109:174   */\n      tag_28\n      jump\t// in\n    tag_25:\n        /* \"#utility.yul\":100:174   */\n      swap1\n      pop\n        /* \"#utility.yul\":197:203   */\n      dup3\n        /* \"#utility.yul\":190:195   */\n      dup2\n        /* \"#utility.yul\":183:204   */\n      mstore\n        /* \"#utility.yul\":235:239   */\n      0x20\n        /* \"#utility.yul\":228:233   */\n      dup2\n        /* \"#utility.yul\":224:240   */\n      add\n        /* \"#utility.yul\":273:276   */\n      dup5\n        /* \"#utility.yul\":264:270   */\n      dup5\n        /* \"#utility.yul\":259:262   */\n      dup5\n        /* \"#utility.yul\":255:271   */\n      add\n        /* \"#utility.yul\":252:277   */\n      gt\n        /* \"#utility.yul\":249:361   */\n      iszero\n      tag_29\n      jumpi\n        /* \"#utility.yul\":280:359   */\n      tag_30\n      tag_31\n      jump\t// in\n    tag_30:\n        /* \"#utility.yul\":249:361   */\n    tag_29:\n        /* \"#utility.yul\":370:411   */\n      tag_32\n        /* \"#utility.yul\":404:410   */\n      dup5\n        /* \"#utility.yul\":399:402   */\n      dup3\n        /* \"#utility.yul\":394:397   */\n      dup6\n        /* \"#utility.yul\":370:411   */\n      tag_33\n      jump\t// in\n    tag_32:\n        /* \"#utility.yul\":90:417   */\n      pop\n        /* \"#utility.yul\":7:417   */\n      swap4\n      swap3\n      pop\n      pop\n      pop\n      jump\t// out\n        /* \"#utility.yul\":423:582   */\n    tag_34:\n        /* \"#utility.yul\":488:493   */\n      0x00\n        /* \"#utility.yul\":519:525   */\n      dup2\n        /* \"#utility.yul\":513:526   */\n      mload\n        /* \"#utility.yul\":504:526   */\n      swap1\n      pop\n        /* \"#utility.yul\":535:576   */\n      tag_36\n        /* \"#utility.yul\":570:575   */\n      dup2\n        /* \"#utility.yul\":535:576   */\n      tag_37\n      jump\t// in\n    tag_36:\n        /* \"#utility.yul\":423:582   */\n      swap3\n      swap2\n      pop\n      pop\n      jump\t// out\n        /* \"#utility.yul\":601:939   */\n    tag_38:\n        /* \"#utility.yul\":656:661   */\n      0x00\n        /* \"#utility.yul\":705:708   */\n      dup3\n        /* \"#utility.yul\":698:702   */\n      0x1f\n        /* \"#utility.yul\":690:696   */\n      dup4\n        /* \"#utility.yul\":686:703   */\n      add\n        /* \"#utility.yul\":682:709   */\n      slt\n        /* \"#utility.yul\":672:794   */\n      tag_40\n      jumpi\n        /* \"#utility.yul\":713:792   */\n      tag_41\n      tag_42\n      jump\t// in\n    tag_41:\n        /* \"#utility.yul\":672:794   */\n    tag_40:\n        /* \"#utility.yul\":830:836   */\n      dup2\n        /* \"#utility.yul\":817:837   */\n      calldataload\n        /* \"#utility.yul\":855:933   */\n      tag_43\n        /* \"#utility.yul\":929:932   */\n      dup5\n        /* \"#utility.yul\":921:927   */\n      dup3\n        /* \"#utility.yul\":914:918   */\n      0x20\n        /* \"#utility.yul\":906:912   */\n      dup7\n        /* \"#utility.yul\":902:919   */\n      add\n        /* \"#utility.yul\":855:933   */\n      tag_23\n      jump\t// in\n    tag_43:\n        /* \"#utility.yul\":846:933   */\n      swap2\n      pop\n        /* \"#utility.yul\":662:939   */\n      pop\n        /* \"#utility.yul\":601:939   */\n      swap3\n      swap2\n      pop\n      pop\n      jump\t// out\n        /* \"#utility.yul\":945:1088   */\n    tag_44:\n        /* \"#utility.yul\":1002:1007   */\n      0x00\n        /* \"#utility.yul\":1033:1039   */\n      dup2\n        /* \"#utility.yul\":1027:1040   */\n      mload\n        /* \"#utility.yul\":1018:1040   */\n      swap1\n      pop\n        /* \"#utility.yul\":1049:1082   */\n      tag_46\n        /* \"#utility.yul\":1076:1081   */\n      dup2\n        /* \"#utility.yul\":1049:1082   */\n      tag_47\n      jump\t// in\n    tag_46:\n        /* \"#utility.yul\":945:1088   */\n      swap3\n      swap2\n      pop\n      pop\n      jump\t// out\n        /* \"#utility.yul\":1094:1461   */\n    tag_18:\n        /* \"#utility.yul\":1172:1178   */\n      0x00\n        /* \"#utility.yul\":1221:1223   */\n      0x20\n        /* \"#utility.yul\":1209:1218   */\n      dup3\n        /* \"#utility.yul\":1200:1207   */\n      dup5\n        /* \"#utility.yul\":1196:1219   */\n      sub\n        /* \"#utility.yul\":1192:1224   */\n      slt\n        /* \"#utility.yul\":1189:1308   */\n      iszero\n      tag_49\n      jumpi\n        /* \"#utility.yul\":1227:1306   */\n      tag_50\n      tag_51\n      jump\t// in\n    tag_50:\n        /* \"#utility.yul\":1189:1308   */\n    tag_49:\n        /* \"#utility.yul\":1347:1348   */\n      0x00\n        /* \"#utility.yul\":1372:1444   */\n      tag_52\n        /* \"#utility.yul\":1436:1443   */\n      dup5\n        /* \"#utility.yul\":1427:1433   */\n      dup3\n        /* \"#utility.yul\":1416:1425   */\n      dup6\n        /* \"#utility.yul\":1412:1434   */\n      add\n        /* \"#utility.yul\":1372:1444   */\n      tag_34\n      jump\t// in\n    tag_52:\n        /* \"#utility.yul\":1362:1444   */\n      swap2\n      pop\n        /* \"#utility.yul\":1318:1454   */\n      pop\n        /* \"#utility.yul\":1094:1461   */\n      swap3\n      swap2\n      pop\n      pop\n      jump\t// out\n        /* \"#utility.yul\":1467:1990   */\n    tag_21:\n        /* \"#utility.yul\":1554:1560   */\n      0x00\n        /* \"#utility.yul\":1562:1568   */\n      dup1\n        /* \"#utility.yul\":1611:1613   */\n      0x40\n        /* \"#utility.yul\":1599:1608   */\n      dup4\n        /* \"#utility.yul\":1590:1597   */\n      dup6\n        /* \"#utility.yul\":1586:1609   */\n      sub\n        /* \"#utility.yul\":1582:1614   */\n      slt\n        /* \"#utility.yul\":1579:1698   */\n      iszero\n      tag_54\n      jumpi\n        /* \"#utility.yul\":1617:1696   */\n      tag_55\n      tag_51\n      jump\t// in\n    tag_55:\n        /* \"#utility.yul\":1579:1698   */\n    tag_54:\n        /* \"#utility.yul\":1737:1738   */\n      0x00\n        /* \"#utility.yul\":1762:1834   */\n      tag_56\n        /* \"#utility.yul\":1826:1833   */\n      dup6\n        /* \"#utility.yul\":1817:1823   */\n      dup3\n        /* \"#utility.yul\":1806:1815   */\n      dup7\n        /* \"#utility.yul\":1802:1824   */\n      add\n        /* \"#utility.yul\":1762:1834   */\n      tag_34\n      jump\t// in\n    tag_56:\n        /* \"#utility.yul\":1752:1834   */\n      swap3\n      pop\n        /* \"#utility.yul\":1708:1844   */\n      pop\n        /* \"#utility.yul\":1883:1885   */\n      0x20\n        /* \"#utility.yul\":1909:1973   */\n      tag_57\n        /* \"#utility.yul\":1965:1972   */\n      dup6\n        /* \"#utility.yul\":1956:1962   */\n      dup3\n        /* \"#utility.yul\":1945:1954   */\n      dup7\n        /* \"#utility.yul\":1941:1963   */\n      add\n        /* \"#utility.yul\":1909:1973   */\n      tag_44\n      jump\t// in\n    tag_57:\n        /* \"#utility.yul\":1899:1973   */\n      swap2\n      pop\n        /* \"#utility.yul\":1854:1983   */\n      pop\n        /* \"#utility.yul\":1467:1990   */\n      swap3\n      pop\n      swap3\n      swap1\n      pop\n      jump\t// out\n        /* \"#utility.yul\":1996:2503   */\n    tag_7:\n        /* \"#utility.yul\":2064:2070   */\n      0x00\n        /* \"#utility.yul\":2113:2115   */\n      0x20\n        /* \"#utility.yul\":2101:2110   */\n      dup3\n        /* \"#utility.yul\":2092:2099   */\n      dup5\n        /* \"#utility.yul\":2088:2111   */\n      sub\n        /* \"#utility.yul\":2084:2116   */\n      slt\n        /* \"#utility.yul\":2081:2200   */\n      iszero\n      tag_59\n      jumpi\n        /* \"#utility.yul\":2119:2198   */\n      tag_60\n      tag_51\n      jump\t// in\n    tag_60:\n        /* \"#utility.yul\":2081:2200   */\n    tag_59:\n        /* \"#utility.yul\":2267:2268   */\n      0x00\n        /* \"#utility.yul\":2256:2265   */\n      dup3\n        /* \"#utility.yul\":2252:2269   */\n      add\n        /* \"#utility.yul\":2239:2270   */\n      calldataload\n        /* \"#utility.yul\":2297:2315   */\n      0xffffffffffffffff\n        /* \"#utility.yul\":2289:2295   */\n      dup2\n        /* \"#utility.yul\":2286:2316   */\n      gt\n        /* \"#utility.yul\":2283:2400   */\n      iszero\n      tag_61\n      jumpi\n        /* \"#utility.yul\":2319:2398   */\n      tag_62\n      tag_63\n      jump\t// in\n    tag_62:\n        /* \"#utility.yul\":2283:2400   */\n    tag_61:\n        /* \"#utility.yul\":2424:2486   */\n      tag_64\n        /* \"#utility.yul\":2478:2485   */\n      dup5\n        /* \"#utility.yul\":2469:2475   */\n      dup3\n        /* \"#utility.yul\":2458:2467   */\n      dup6\n        /* \"#utility.yul\":2454:2476   */\n      add\n        /* \"#utility.yul\":2424:2486   */\n      tag_38\n      jump\t// in\n    tag_64:\n        /* \"#utility.yul\":2414:2486   */\n      swap2\n      pop\n        /* \"#utility.yul\":2210:2496   */\n      pop\n        /* \"#utility.yul\":1996:2503   */\n      swap3\n      swap2\n      pop\n      pop\n      jump\t// out\n        /* \"#utility.yul\":2509:2627   */\n    tag_65:\n        /* \"#utility.yul\":2596:2620   */\n      tag_67\n        /* \"#utility.yul\":2614:2619   */\n      dup2\n        /* \"#utility.yul\":2596:2620   */\n      tag_68\n      jump\t// in\n    tag_67:\n        /* \"#utility.yul\":2591:2594   */\n      dup3\n        /* \"#utility.yul\":2584:2621   */\n      mstore\n        /* \"#utility.yul\":2509:2627   */\n      pop\n      pop\n      jump\t// out\n        /* \"#utility.yul\":2633:2751   */\n    tag_69:\n        /* \"#utility.yul\":2720:2744   */\n      tag_71\n        /* \"#utility.yul\":2738:2743   */\n      dup2\n        /* \"#utility.yul\":2720:2744   */\n      tag_72\n      jump\t// in\n    tag_71:\n        /* \"#utility.yul\":2715:2718   */\n      dup3\n        /* \"#utility.yul\":2708:2745   */\n      mstore\n        /* \"#utility.yul\":2633:2751   */\n      pop\n      pop\n      jump\t// out\n        /* \"#utility.yul\":2757:2979   */\n    tag_10:\n        /* \"#utility.yul\":2850:2854   */\n      0x00\n        /* \"#utility.yul\":2888:2890   */\n      0x20\n        /* \"#utility.yul\":2877:2886   */\n      dup3\n        /* \"#utility.yul\":2873:2891   */\n      add\n        /* \"#utility.yul\":2865:2891   */\n      swap1\n      pop\n        /* \"#utility.yul\":2901:2972   */\n      tag_74\n        /* \"#utility.yul\":2969:2970   */\n      0x00\n        /* \"#utility.yul\":2958:2967   */\n      dup4\n        /* \"#utility.yul\":2954:2971   */\n      add\n        /* \"#utility.yul\":2945:2951   */\n      dup5\n        /* \"#utility.yul\":2901:2972   */\n      tag_65\n      jump\t// in\n    tag_74:\n        /* \"#utility.yul\":2757:2979   */\n      swap3\n      swap2\n      pop\n      pop\n      jump\t// out\n        /* \"#utility.yul\":2985:3317   */\n    tag_15:\n        /* \"#utility.yul\":3106:3110   */\n      0x00\n        /* \"#utility.yul\":3144:3146   */\n      0x40\n        /* \"#utility.yul\":3133:3142   */\n      dup3\n        /* \"#utility.yul\":3129:3147   */\n      add\n        /* \"#utility.yul\":3121:3147   */\n      swap1\n      pop\n        /* \"#utility.yul\":3157:3228   */\n      tag_76\n        /* \"#utility.yul\":3225:3226   */\n      0x00\n        /* \"#utility.yul\":3214:3223   */\n      dup4\n        /* \"#utility.yul\":3210:3227   */\n      add\n        /* \"#utility.yul\":3201:3207   */\n      dup6\n        /* \"#utility.yul\":3157:3228   */\n      tag_65\n      jump\t// in\n    tag_76:\n        /* \"#utility.yul\":3238:3310   */\n      tag_77\n        /* \"#utility.yul\":3306:3308   */\n      0x20\n        /* \"#utility.yul\":3295:3304   */\n      dup4\n        /* \"#utility.yul\":3291:3309   */\n      add\n        /* \"#utility.yul\":3282:3288   */\n      dup5\n        /* \"#utility.yul\":3238:3310   */\n      tag_69\n      jump\t// in\n    tag_77:\n        /* \"#utility.yul\":2985:3317   */\n      swap4\n      swap3\n      pop\n      pop\n      pop\n      jump\t// out\n        /* \"#utility.yul\":3323:3452   */\n    tag_28:\n        /* \"#utility.yul\":3357:3363   */\n      0x00\n        /* \"#utility.yul\":3384:3404   */\n      tag_79\n      tag_80\n      jump\t// in\n    tag_79:\n        /* \"#utility.yul\":3374:3404   */\n      swap1\n      pop\n        /* \"#utility.yul\":3413:3446   */\n      tag_81\n        /* \"#utility.yul\":3441:3445   */\n      dup3\n        /* \"#utility.yul\":3433:3439   */\n      dup3\n        /* \"#utility.yul\":3413:3446   */\n      tag_82\n      jump\t// in\n    tag_81:\n        /* \"#utility.yul\":3323:3452   */\n      swap2\n      swap1\n      pop\n      jump\t// out\n        /* \"#utility.yul\":3458:3533   */\n    tag_80:\n        /* \"#utility.yul\":3491:3497   */\n      0x00\n        /* \"#utility.yul\":3524:3526   */\n      0x40\n        /* \"#utility.yul\":3518:3527   */\n      mload\n        /* \"#utility.yul\":3508:3527   */\n      swap1\n      pop\n        /* \"#utility.yul\":3458:3533   */\n      swap1\n      jump\t// out\n        /* \"#utility.yul\":3539:3846   */\n    tag_27:\n        /* \"#utility.yul\":3600:3604   */\n      0x00\n        /* \"#utility.yul\":3690:3708   */\n      0xffffffffffffffff\n        /* \"#utility.yul\":3682:3688   */\n      dup3\n        /* \"#utility.yul\":3679:3709   */\n      gt\n        /* \"#utility.yul\":3676:3732   */\n      iszero\n      tag_85\n      jumpi\n        /* \"#utility.yul\":3712:3730   */\n      tag_86\n      tag_87\n      jump\t// in\n    tag_86:\n        /* \"#utility.yul\":3676:3732   */\n    tag_85:\n        /* \"#utility.yul\":3750:3779   */\n      tag_88\n        /* \"#utility.yul\":3772:3778   */\n      dup3\n        /* \"#utility.yul\":3750:3779   */\n      tag_89\n      jump\t// in\n    tag_88:\n        /* \"#utility.yul\":3742:3779   */\n      swap1\n      pop\n        /* \"#utility.yul\":3834:3838   */\n      0x20\n        /* \"#utility.yul\":3828:3832   */\n      dup2\n        /* \"#utility.yul\":3824:3839   */\n      add\n        /* \"#utility.yul\":3816:3839   */\n      swap1\n      pop\n        /* \"#utility.yul\":3539:3846   */\n      swap2\n      swap1\n      pop\n      jump\t// out\n        /* \"#utility.yul\":3852:3948   */\n    tag_68:\n        /* \"#utility.yul\":3889:3896   */\n      0x00\n        /* \"#utility.yul\":3918:3942   */\n      tag_91\n        /* \"#utility.yul\":3936:3941   */\n      dup3\n        /* \"#utility.yul\":3918:3942   */\n      tag_92\n      jump\t// in\n    tag_91:\n        /* \"#utility.yul\":3907:3942   */\n      swap1\n      pop\n        /* \"#utility.yul\":3852:3948   */\n      swap2\n      swap1\n      pop\n      jump\t// out\n        /* \"#utility.yul\":3954:4058   */\n    tag_93:\n        /* \"#utility.yul\":3999:4006   */\n      0x00\n        /* \"#utility.yul\":4028:4052   */\n      tag_95\n        /* \"#utility.yul\":4046:4051   */\n      dup3\n        /* \"#utility.yul\":4028:4052   */\n      tag_92\n      jump\t// in\n    tag_95:\n        /* \"#utility.yul\":4017:4052   */\n      swap1\n      pop\n        /* \"#utility.yul\":3954:4058   */\n      swap2\n      swap1\n      pop\n      jump\t// out\n        /* \"#utility.yul\":4064:4190   */\n    tag_92:\n        /* \"#utility.yul\":4101:4108   */\n      0x00\n        /* \"#utility.yul\":4141:4183   */\n      0xffffffffffffffffffffffffffffffffffffffff\n        /* \"#utility.yul\":4134:4139   */\n      dup3\n        /* \"#utility.yul\":4130:4184   */\n      and\n        /* \"#utility.yul\":4119:4184   */\n      swap1\n      pop\n        /* \"#utility.yul\":4064:4190   */\n      swap2\n      swap1\n      pop\n      jump\t// out\n        /* \"#utility.yul\":4196:4273   */\n    tag_72:\n        /* \"#utility.yul\":4233:4240   */\n      0x00\n        /* \"#utility.yul\":4262:4267   */\n      dup2\n        /* \"#utility.yul\":4251:4267   */\n      swap1\n      pop\n        /* \"#utility.yul\":4196:4273   */\n      swap2\n      swap1\n      pop\n      jump\t// out\n        /* \"#utility.yul\":4279:4433   */\n    tag_33:\n        /* \"#utility.yul\":4363:4369   */\n      dup3\n        /* \"#utility.yul\":4358:4361   */\n      dup2\n        /* \"#utility.yul\":4353:4356   */\n      dup4\n        /* \"#utility.yul\":4340:4370   */\n      calldatacopy\n        /* \"#utility.yul\":4425:4426   */\n      0x00\n        /* \"#utility.yul\":4416:4422   */\n      dup4\n        /* \"#utility.yul\":4411:4414   */\n      dup4\n        /* \"#utility.yul\":4407:4423   */\n      add\n        /* \"#utility.yul\":4400:4427   */\n      mstore\n        /* \"#utility.yul\":4279:4433   */\n      pop\n      pop\n      pop\n      jump\t// out\n        /* \"#utility.yul\":4439:4720   */\n    tag_82:\n        /* \"#utility.yul\":4522:4549   */\n      tag_100\n        /* \"#utility.yul\":4544:4548   */\n      dup3\n        /* \"#utility.yul\":4522:4549   */\n      tag_89\n      jump\t// in\n    tag_100:\n        /* \"#utility.yul\":4514:4520   */\n      dup2\n        /* \"#utility.yul\":4510:4550   */\n      add\n        /* \"#utility.yul\":4652:4658   */\n      dup2\n        /* \"#utility.yul\":4640:4650   */\n      dup2\n        /* \"#utility.yul\":4637:4659   */\n      lt\n        /* \"#utility.yul\":4616:4634   */\n      0xffffffffffffffff\n        /* \"#utility.yul\":4604:4614   */\n      dup3\n        /* \"#utility.yul\":4601:4635   */\n      gt\n        /* \"#utility.yul\":4598:4660   */\n      or\n        /* \"#utility.yul\":4595:4683   */\n      iszero\n      tag_101\n      jumpi\n        /* \"#utility.yul\":4663:4681   */\n      tag_102\n      tag_87\n      jump\t// in\n    tag_102:\n        /* \"#utility.yul\":4595:4683   */\n    tag_101:\n        /* \"#utility.yul\":4703:4713   */\n      dup1\n        /* \"#utility.yul\":4699:4701   */\n      0x40\n        /* \"#utility.yul\":4692:4714   */\n      mstore\n        /* \"#utility.yul\":4482:4720   */\n      pop\n        /* \"#utility.yul\":4439:4720   */\n      pop\n      pop\n      jump\t// out\n        /* \"#utility.yul\":4726:4906   */\n    tag_87:\n        /* \"#utility.yul\":4774:4851   */\n      0x4e487b7100000000000000000000000000000000000000000000000000000000\n        /* \"#utility.yul\":4771:4772   */\n      0x00\n        /* \"#utility.yul\":4764:4852   */\n      mstore\n        /* \"#utility.yul\":4871:4875   */\n      0x41\n        /* \"#utility.yul\":4868:4869   */\n      0x04\n        /* \"#utility.yul\":4861:4876   */\n      mstore\n        /* \"#utility.yul\":4895:4899   */\n      0x24\n        /* \"#utility.yul\":4892:4893   */\n      0x00\n        /* \"#utility.yul\":4885:4900   */\n      revert\n        /* \"#utility.yul\":4912:5029   */\n    tag_42:\n        /* \"#utility.yul\":5021:5022   */\n      0x00\n        /* \"#utility.yul\":5018:5019   */\n      dup1\n        /* \"#utility.yul\":5011:5023   */\n      revert\n        /* \"#utility.yul\":5035:5152   */\n    tag_31:\n        /* \"#utility.yul\":5144:5145   */\n      0x00\n        /* \"#utility.yul\":5141:5142   */\n      dup1\n        /* \"#utility.yul\":5134:5146   */\n      revert\n        /* \"#utility.yul\":5158:5275   */\n    tag_63:\n        /* \"#utility.yul\":5267:5268   */\n      0x00\n        /* \"#utility.yul\":5264:5265   */\n      dup1\n        /* \"#utility.yul\":5257:5269   */\n      revert\n        /* \"#utility.yul\":5281:5398   */\n    tag_51:\n        /* \"#utility.yul\":5390:5391   */\n      0x00\n        /* \"#utility.yul\":5387:5388   */\n      dup1\n        /* \"#utility.yul\":5380:5392   */\n      revert\n        /* \"#utility.yul\":5404:5506   */\n    tag_89:\n        /* \"#utility.yul\":5445:5451   */\n      0x00\n        /* \"#utility.yul\":5496:5498   */\n      0x1f\n        /* \"#utility.yul\":5492:5499   */\n      not\n        /* \"#utility.yul\":5487:5489   */\n      0x1f\n        /* \"#utility.yul\":5480:5485   */\n      dup4\n        /* \"#utility.yul\":5476:5490   */\n      add\n        /* \"#utility.yul\":5472:5500   */\n      and\n        /* \"#utility.yul\":5462:5500   */\n      swap1\n      pop\n        /* \"#utility.yul\":5404:5506   */\n      swap2\n      swap1\n      pop\n      jump\t// out\n        /* \"#utility.yul\":5512:5650   */\n    tag_37:\n        /* \"#utility.yul\":5593:5625   */\n      tag_110\n        /* \"#utility.yul\":5619:5624   */\n      dup2\n        /* \"#utility.yul\":5593:5625   */\n      tag_93\n      jump\t// in\n    tag_110:\n        /* \"#utility.yul\":5586:5591   */\n      dup2\n        /* \"#utility.yul\":5583:5626   */\n      eq\n        /* \"#utility.yul\":5573:5644   */\n      tag_111\n      jumpi\n        /* \"#utility.yul\":5640:5641   */\n      0x00\n        /* \"#utility.yul\":5637:5638   */\n      dup1\n        /* \"#utility.yul\":5630:5642   */\n      revert\n        /* \"#utility.yul\":5573:5644   */\n    tag_111:\n        /* \"#utility.yul\":5512:5650   */\n      pop\n      jump\t// out\n        /* \"#utility.yul\":5656:5778   */\n    tag_47:\n        /* \"#utility.yul\":5729:5753   */\n      tag_113\n        /* \"#utility.yul\":5747:5752   */\n      dup2\n        /* \"#utility.yul\":5729:5753   */\n      tag_72\n      jump\t// in\n    tag_113:\n        /* \"#utility.yul\":5722:5727   */\n      dup2\n        /* \"#utility.yul\":5719:5754   */\n      eq\n        /* \"#utility.yul\":5709:5772   */\n      tag_114\n      jumpi\n        /* \"#utility.yul\":5768:5769   */\n      0x00\n        /* \"#utility.yul\":5765:5766   */\n      dup1\n        /* \"#utility.yul\":5758:5770   */\n      revert\n        /* \"#utility.yul\":5709:5772   */\n    tag_114:\n        /* \"#utility.yul\":5656:5778   */\n      pop\n      jump\t// out\n\n    auxdata: 0xa264697066735822122012318d0e9dee8aea39785bfce12496a885089bd2a0a80dec1d8d4bd3f217c63264736f6c63430008070033\n}\n",
				"bytecode": {
					"linkReferences": {},
					"object": "608060405234801561001057600080fd5b50610437806100206000396000f3fe608060405234801561001057600080fd5b50600436106100365760003560e01c80631f2aaa341461003b578063a325bfb61461006b575b600080fd5b610055600480360381019061005091906101f0565b61009c565b6040516100629190610257565b60405180910390f35b610085600480360381019061008091906101f0565b6100be565b604051610093929190610272565b60405180910390f35b600080828060200190518101906100b39190610183565b905080915050919050565b600080600080848060200190518101906100d891906101b0565b915091508181935093505050915091565b60006100fc6100f7846102c0565b61029b565b905082815260208101848484011115610118576101176103b3565b5b61012384828561033f565b509392505050565b60008151905061013a816103d3565b92915050565b600082601f830112610155576101546103ae565b5b81356101658482602086016100e9565b91505092915050565b60008151905061017d816103ea565b92915050565b600060208284031215610199576101986103bd565b5b60006101a78482850161012b565b91505092915050565b600080604083850312156101c7576101c66103bd565b5b60006101d58582860161012b565b92505060206101e68582860161016e565b9150509250929050565b600060208284031215610206576102056103bd565b5b600082013567ffffffffffffffff811115610224576102236103b8565b5b61023084828501610140565b91505092915050565b610242816102f1565b82525050565b61025181610335565b82525050565b600060208201905061026c6000830184610239565b92915050565b60006040820190506102876000830185610239565b6102946020830184610248565b9392505050565b60006102a56102b6565b90506102b1828261034e565b919050565b6000604051905090565b600067ffffffffffffffff8211156102db576102da61037f565b5b6102e4826103c2565b9050602081019050919050565b60006102fc82610315565b9050919050565b600061030e82610315565b9050919050565b600073ffffffffffffffffffffffffffffffffffffffff82169050919050565b6000819050919050565b82818337600083830152505050565b610357826103c2565b810181811067ffffffffffffffff821117156103765761037561037f565b5b80604052505050565b7f4e487b7100000000000000000000000000000000000000000000000000000000600052604160045260246000fd5b600080fd5b600080fd5b600080fd5b600080fd5b6000601f19601f8301169050919050565b6103dc81610303565b81146103e757600080fd5b50565b6103f381610335565b81146103fe57600080fd5b5056fea264697066735822122012318d0e9dee8aea39785bfce12496a885089bd2a0a80dec1d8d4bd3f217c63264736f6c63430008070033",
					"opcodes": "PUSH1 0x80 PUSH1 0x40 MSTORE CALLVALUE DUP1 ISZERO PUSH2 0x10 JUMPI PUSH1 0x0 DUP1 REVERT JUMPDEST POP PUSH2 0x437 DUP1 PUSH2 0x20 PUSH1 0x0 CODECOPY PUSH1 0x0 RETURN INVALID PUSH1 0x80 PUSH1 0x40 MSTORE CALLVALUE DUP1 ISZERO PUSH2 0x10 JUMPI PUSH1 0x0 DUP1 REVERT JUMPDEST POP PUSH1 0x4 CALLDATASIZE LT PUSH2 0x36 JUMPI PUSH1 0x0 CALLDATALOAD PUSH1 0xE0 SHR DUP1 PUSH4 0x1F2AAA34 EQ PUSH2 0x3B JUMPI DUP1 PUSH4 0xA325BFB6 EQ PUSH2 0x6B JUMPI JUMPDEST PUSH1 0x0 DUP1 REVERT JUMPDEST PUSH2 0x55 PUSH1 0x4 DUP1 CALLDATASIZE SUB DUP2 ADD SWAP1 PUSH2 0x50 SWAP2 SWAP1 PUSH2 0x1F0 JUMP JUMPDEST PUSH2 0x9C JUMP JUMPDEST PUSH1 0x40 MLOAD PUSH2 0x62 SWAP2 SWAP1 PUSH2 0x257 JUMP JUMPDEST PUSH1 0x40 MLOAD DUP1 SWAP2 SUB SWAP1 RETURN JUMPDEST PUSH2 0x85 PUSH1 0x4 DUP1 CALLDATASIZE SUB DUP2 ADD SWAP1 PUSH2 0x80 SWAP2 SWAP1 PUSH2 0x1F0 JUMP JUMPDEST PUSH2 0xBE JUMP JUMPDEST PUSH1 0x40 MLOAD PUSH2 0x93 SWAP3 SWAP2 SWAP1 PUSH2 0x272 JUMP JUMPDEST PUSH1 0x40 MLOAD DUP1 SWAP2 SUB SWAP1 RETURN JUMPDEST PUSH1 0x0 DUP1 DUP3 DUP1 PUSH1 0x20 ADD SWAP1 MLOAD DUP2 ADD SWAP1 PUSH2 0xB3 SWAP2 SWAP1 PUSH2 0x183 JUMP JUMPDEST SWAP1 POP DUP1 SWAP2 POP POP SWAP2 SWAP1 POP JUMP JUMPDEST PUSH1 0x0 DUP1 PUSH1 0x0 DUP1 DUP5 DUP1 PUSH1 0x20 ADD SWAP1 MLOAD DUP2 ADD SWAP1 PUSH2 0xD8 SWAP2 SWAP1 PUSH2 0x1B0 JUMP JUMPDEST SWAP2 POP SWAP2 POP DUP2 DUP2 SWAP4 POP SWAP4 POP POP POP SWAP2 POP SWAP2 JUMP JUMPDEST PUSH1 0x0 PUSH2 0xFC PUSH2 0xF7 DUP5 PUSH2 0x2C0 JUMP JUMPDEST PUSH2 0x29B JUMP JUMPDEST SWAP1 POP DUP3 DUP2 MSTORE PUSH1 0x20 DUP2 ADD DUP5 DUP5 DUP5 ADD GT ISZERO PUSH2 0x118 JUMPI PUSH2 0x117 PUSH2 0x3B3 JUMP JUMPDEST JUMPDEST PUSH2 0x123 DUP5 DUP3 DUP6 PUSH2 0x33F JUMP JUMPDEST POP SWAP4 SWAP3 POP POP POP JUMP JUMPDEST PUSH1 0x0 DUP2 MLOAD SWAP1 POP PUSH2 0x13A DUP2 PUSH2 0x3D3 JUMP JUMPDEST SWAP3 SWAP2 POP POP JUMP JUMPDEST PUSH1 0x0 DUP3 PUSH1 0x1F DUP4 ADD SLT PUSH2 0x155 JUMPI PUSH2 0x154 PUSH2 0x3AE JUMP JUMPDEST JUMPDEST DUP2 CALLDATALOAD PUSH2 0x165 DUP5 DUP3 PUSH1 0x20 DUP7 ADD PUSH2 0xE9 JUMP JUMPDEST SWAP2 POP POP SWAP3 SWAP2 POP POP JUMP JUMPDEST PUSH1 0x0 DUP2 MLOAD SWAP1 POP PUSH2 0x17D DUP2 PUSH2 0x3EA JUMP JUMPDEST SWAP3 SWAP2 POP POP JUMP JUMPDEST PUSH1 0x0 PUSH1 0x20 DUP3 DUP5 SUB SLT ISZERO PUSH2 0x199 JUMPI PUSH2 0x198 PUSH2 0x3BD JUMP JUMPDEST JUMPDEST PUSH1 0x0 PUSH2 0x1A7 DUP5 DUP3 DUP6 ADD PUSH2 0x12B JUMP JUMPDEST SWAP2 POP POP SWAP3 SWAP2 POP POP JUMP JUMPDEST PUSH1 0x0 DUP1 PUSH1 0x40 DUP4 DUP6 SUB SLT ISZERO PUSH2 0x1C7 JUMPI PUSH2 0x1C6 PUSH2 0x3BD JUMP JUMPDEST JUMPDEST PUSH1 0x0 PUSH2 0x1D5 DUP6 DUP3 DUP7 ADD PUSH2 0x12B JUMP JUMPDEST SWAP3 POP POP PUSH1 0x20 PUSH2 0x1E6 DUP6 DUP3 DUP7 ADD PUSH2 0x16E JUMP JUMPDEST SWAP2 POP POP SWAP3 POP SWAP3 SWAP1 POP JUMP JUMPDEST PUSH1 0x0 PUSH1 0x20 DUP3 DUP5 SUB SLT ISZERO PUSH2 0x206 JUMPI PUSH2 0x205 PUSH2 0x3BD JUMP JUMPDEST JUMPDEST PUSH1 0x0 DUP3 ADD CALLDATALOAD PUSH8 0xFFFFFFFFFFFFFFFF DUP2 GT ISZERO PUSH2 0x224 JUMPI PUSH2 0x223 PUSH2 0x3B8 JUMP JUMPDEST JUMPDEST PUSH2 0x230 DUP5 DUP3 DUP6 ADD PUSH2 0x140 JUMP JUMPDEST SWAP2 POP POP SWAP3 SWAP2 POP POP JUMP JUMPDEST PUSH2 0x242 DUP2 PUSH2 0x2F1 JUMP JUMPDEST DUP3 MSTORE POP POP JUMP JUMPDEST PUSH2 0x251 DUP2 PUSH2 0x335 JUMP JUMPDEST DUP3 MSTORE POP POP JUMP JUMPDEST PUSH1 0x0 PUSH1 0x20 DUP3 ADD SWAP1 POP PUSH2 0x26C PUSH1 0x0 DUP4 ADD DUP5 PUSH2 0x239 JUMP JUMPDEST SWAP3 SWAP2 POP POP JUMP JUMPDEST PUSH1 0x0 PUSH1 0x40 DUP3 ADD SWAP1 POP PUSH2 0x287 PUSH1 0x0 DUP4 ADD DUP6 PUSH2 0x239 JUMP JUMPDEST PUSH2 0x294 PUSH1 0x20 DUP4 ADD DUP5 PUSH2 0x248 JUMP JUMPDEST SWAP4 SWAP3 POP POP POP JUMP JUMPDEST PUSH1 0x0 PUSH2 0x2A5 PUSH2 0x2B6 JUMP JUMPDEST SWAP1 POP PUSH2 0x2B1 DUP3 DUP3 PUSH2 0x34E JUMP JUMPDEST SWAP2 SWAP1 POP JUMP JUMPDEST PUSH1 0x0 PUSH1 0x40 MLOAD SWAP1 POP SWAP1 JUMP JUMPDEST PUSH1 0x0 PUSH8 0xFFFFFFFFFFFFFFFF DUP3 GT ISZERO PUSH2 0x2DB JUMPI PUSH2 0x2DA PUSH2 0x37F JUMP JUMPDEST JUMPDEST PUSH2 0x2E4 DUP3 PUSH2 0x3C2 JUMP JUMPDEST SWAP1 POP PUSH1 0x20 DUP2 ADD SWAP1 POP SWAP2 SWAP1 POP JUMP JUMPDEST PUSH1 0x0 PUSH2 0x2FC DUP3 PUSH2 0x315 JUMP JUMPDEST SWAP1 POP SWAP2 SWAP1 POP JUMP JUMPDEST PUSH1 0x0 PUSH2 0x30E DUP3 PUSH2 0x315 JUMP JUMPDEST SWAP1 POP SWAP2 SWAP1 POP JUMP JUMPDEST PUSH1 0x0 PUSH20 0xFFFFFFFFFFFFFFFFFFFFFFFFFFFFFFFFFFFFFFFF DUP3 AND SWAP1 POP SWAP2 SWAP1 POP JUMP JUMPDEST PUSH1 0x0 DUP2 SWAP1 POP SWAP2 SWAP1 POP JUMP JUMPDEST DUP3 DUP2 DUP4 CALLDATACOPY PUSH1 0x0 DUP4 DUP4 ADD MSTORE POP POP POP JUMP JUMPDEST PUSH2 0x357 DUP3 PUSH2 0x3C2 JUMP JUMPDEST DUP2 ADD DUP2 DUP2 LT PUSH8 0xFFFFFFFFFFFFFFFF DUP3 GT OR ISZERO PUSH2 0x376 JUMPI PUSH2 0x375 PUSH2 0x37F JUMP JUMPDEST JUMPDEST DUP1 PUSH1 0x40 MSTORE POP POP POP JUMP JUMPDEST PUSH32 0x4E487B7100000000000000000000000000000000000000000000000000000000 PUSH1 0x0 MSTORE PUSH1 0x41 PUSH1 0x4 MSTORE PUSH1 0x24 PUSH1 0x0 REVERT JUMPDEST PUSH1 0x0 DUP1 REVERT JUMPDEST PUSH1 0x0 DUP1 REVERT JUMPDEST PUSH1 0x0 DUP1 REVERT JUMPDEST PUSH1 0x0 DUP1 REVERT JUMPDEST PUSH1 0x0 PUSH1 0x1F NOT PUSH1 0x1F DUP4 ADD AND SWAP1 POP SWAP2 SWAP1 POP JUMP JUMPDEST PUSH2 0x3DC DUP2 PUSH2 0x303 JUMP JUMPDEST DUP2 EQ PUSH2 0x3E7 JUMPI PUSH1 0x0 DUP1 REVERT JUMPDEST POP JUMP JUMPDEST PUSH2 0x3F3 DUP2 PUSH2 0x335 JUMP JUMPDEST DUP2 EQ PUSH2 0x3FE JUMPI PUSH1 0x0 DUP1 REVERT JUMPDEST POP JUMP INVALID LOG2 PUSH5 0x6970667358 0x22 SLT KECCAK256 SLT BALANCE DUP14 0xE SWAP14 0xEE DUP11 0xEA CODECOPY PUSH25 0x5BFCE12496A885089BD2A0A80DEC1D8D4BD3F217C63264736F PUSH13 0x63430008070033000000000000 "
				},
				"gasEstimates": {
					"creation": {
						"codeDepositCost": "215800",
						"executionCost": "257",
						"totalCost": "216057"
					},
					"external": {
						"checkEncodeMakerAsset(bytes)": "infinite",
						"checkEncodeTakerAsset(bytes)": "infinite"
					}
				},
				"methodIdentifiers": {
					"checkEncodeMakerAsset(bytes)": "a325bfb6",
					"checkEncodeTakerAsset(bytes)": "1f2aaa34"
				}
			},
			"storageLayout": {
				"storage": [],
				"types": null
			},
			"userdoc": {
				"kind": "user",
				"methods": {},
				"version": 1
			}
		}
	}
}