{
	"contracts/NFTexchange/Lib/LibAsset.sol": {
		"LibAsset": {
			"abi": [
				{
					"inputs": [],
					"name": "ERC1155_ASSET_CLASS",
					"outputs": [
						{
							"internalType": "bytes4",
							"name": "",
							"type": "bytes4"
						}
					],
					"stateMutability": "view",
					"type": "function"
				},
				{
					"inputs": [],
					"name": "ERC20_ASSET_CLASS",
					"outputs": [
						{
							"internalType": "bytes4",
							"name": "",
							"type": "bytes4"
						}
					],
					"stateMutability": "view",
					"type": "function"
				},
				{
					"inputs": [],
					"name": "ERC721_ASSET_CLASS",
					"outputs": [
						{
							"internalType": "bytes4",
							"name": "",
							"type": "bytes4"
						}
					],
					"stateMutability": "view",
					"type": "function"
				},
				{
					"inputs": [],
					"name": "ETH_ASSET_CLASS",
					"outputs": [
						{
							"internalType": "bytes4",
							"name": "",
							"type": "bytes4"
						}
					],
					"stateMutability": "view",
					"type": "function"
				}
			],
			"devdoc": {
				"kind": "dev",
				"methods": {},
				"version": 1
			},
			"evm": {
				"assembly": "    /* \"contracts/NFTexchange/Lib/LibAsset.sol\":57:1279  library LibAsset {... */\n  dataSize(sub_0)\n  dataOffset(sub_0)\n  0x0b\n  dup3\n  dup3\n  dup3\n  codecopy\n  dup1\n  mload\n  0x00\n  byte\n  0x73\n  eq\n  tag_1\n  jumpi\n  mstore(0x00, shl(0xe0, 0x4e487b71))\n  mstore(0x04, 0x00)\n  revert(0x00, 0x24)\ntag_1:\n  mstore(0x00, address)\n  0x73\n  dup2\n  mstore8\n  dup3\n  dup2\n  return\nstop\n\nsub_0: assembly {\n        /* \"contracts/NFTexchange/Lib/LibAsset.sol\":57:1279  library LibAsset {... */\n      eq(address, deployTimeAddress())\n      mstore(0x40, 0x80)\n      jumpi(tag_1, lt(calldatasize, 0x04))\n      shr(0xe0, calldataload(0x00))\n      dup1\n      0x405bf275\n      eq\n      tag_2\n      jumpi\n      dup1\n      0x6cd2c30a\n      eq\n      tag_3\n      jumpi\n      dup1\n      0xb4797da2\n      eq\n      tag_4\n      jumpi\n      dup1\n      0xc214be59\n      eq\n      tag_5\n      jumpi\n    tag_1:\n      0x00\n      dup1\n      revert\n        /* \"contracts/NFTexchange/Lib/LibAsset.sol\":303:376  bytes4 constant public ERC1155_ASSET_CLASS = bytes4(keccak256(\"ERC1155\")) */\n    tag_2:\n      tag_6\n        /* \"contracts/NFTexchange/Lib/LibAsset.sol\":355:375  keccak256(\"ERC1155\") */\n      0x973bb64086f173ec8099b7ed3d43da984f4a332e4417a08bc6a286e6402b0586\n        /* \"contracts/NFTexchange/Lib/LibAsset.sol\":303:376  bytes4 constant public ERC1155_ASSET_CLASS = bytes4(keccak256(\"ERC1155\")) */\n      dup2\n      jump\n    tag_6:\n      mload(0x40)\n      not(sub(shl(0xe0, 0x01), 0x01))\n        /* \"#utility.yul\":184:217   */\n      swap1\n      swap2\n      and\n        /* \"#utility.yul\":166:218   */\n      dup2\n      mstore\n        /* \"#utility.yul\":154:156   */\n      0x20\n        /* \"#utility.yul\":139:157   */\n      add\n        /* \"contracts/NFTexchange/Lib/LibAsset.sol\":303:376  bytes4 constant public ERC1155_ASSET_CLASS = bytes4(keccak256(\"ERC1155\")) */\n      mload(0x40)\n      dup1\n      swap2\n      sub\n      swap1\n      return\n        /* \"contracts/NFTexchange/Lib/LibAsset.sol\":151:220  bytes4 constant public ERC20_ASSET_CLASS = bytes4(keccak256(\"ERC20\")) */\n    tag_3:\n      tag_6\n        /* \"contracts/NFTexchange/Lib/LibAsset.sol\":201:219  keccak256(\"ERC20\") */\n      0x8ae85d849167ff996c04040c44924fd364217285e4cad818292c7ac37c0a345b\n        /* \"contracts/NFTexchange/Lib/LibAsset.sol\":151:220  bytes4 constant public ERC20_ASSET_CLASS = bytes4(keccak256(\"ERC20\")) */\n      dup2\n      jump\n        /* \"contracts/NFTexchange/Lib/LibAsset.sol\":80:145  bytes4 constant public ETH_ASSET_CLASS = bytes4(keccak256(\"ETH\")) */\n    tag_4:\n      tag_6\n        /* \"contracts/NFTexchange/Lib/LibAsset.sol\":128:144  keccak256(\"ETH\") */\n      0xaaaebeba3810b1e6b70781f14b2d72c1cb89c0b2b320c43bb67ff79f562f5ff4\n        /* \"contracts/NFTexchange/Lib/LibAsset.sol\":80:145  bytes4 constant public ETH_ASSET_CLASS = bytes4(keccak256(\"ETH\")) */\n      dup2\n      jump\n        /* \"contracts/NFTexchange/Lib/LibAsset.sol\":226:297  bytes4 constant public ERC721_ASSET_CLASS = bytes4(keccak256(\"ERC721\")) */\n    tag_5:\n      tag_6\n        /* \"contracts/NFTexchange/Lib/LibAsset.sol\":277:296  keccak256(\"ERC721\") */\n      0x73ad2146b3d3a286642c794379d750360a2d53a3459a11b3e5d6cc900f55f44a\n        /* \"contracts/NFTexchange/Lib/LibAsset.sol\":226:297  bytes4 constant public ERC721_ASSET_CLASS = bytes4(keccak256(\"ERC721\")) */\n      dup2\n      jump\n\n    auxdata: 0xa26469706673582212205aa2f592137081ead46a485b4c0964f51d3faab2946cd307081fb965db58cc8264736f6c634300080e0033\n}\n",
				"bytecode": {
					"linkReferences": {},
					"object": "61014a61003a600b82828239805160001a60731461002d57634e487b7160e01b600052600060045260246000fd5b30600052607381538281f3fe73000000000000000000000000000000000000000030146080604052600436106100565760003560e01c8063405bf2751461005b5780636cd2c30a1461009f578063b4797da2146100c6578063c214be59146100ed575b600080fd5b6100827f973bb64086f173ec8099b7ed3d43da984f4a332e4417a08bc6a286e6402b058681565b6040516001600160e01b0319909116815260200160405180910390f35b6100827f8ae85d849167ff996c04040c44924fd364217285e4cad818292c7ac37c0a345b81565b6100827faaaebeba3810b1e6b70781f14b2d72c1cb89c0b2b320c43bb67ff79f562f5ff481565b6100827f73ad2146b3d3a286642c794379d750360a2d53a3459a11b3e5d6cc900f55f44a8156fea26469706673582212205aa2f592137081ead46a485b4c0964f51d3faab2946cd307081fb965db58cc8264736f6c634300080e0033",
					"opcodes": "PUSH2 0x14A PUSH2 0x3A PUSH1 0xB DUP3 DUP3 DUP3 CODECOPY DUP1 MLOAD PUSH1 0x0 BYTE PUSH1 0x73 EQ PUSH2 0x2D JUMPI PUSH4 0x4E487B71 PUSH1 0xE0 SHL PUSH1 0x0 MSTORE PUSH1 0x0 PUSH1 0x4 MSTORE PUSH1 0x24 PUSH1 0x0 REVERT JUMPDEST ADDRESS PUSH1 0x0 MSTORE PUSH1 0x73 DUP2 MSTORE8 DUP3 DUP2 RETURN INVALID PUSH20 0x0 ADDRESS EQ PUSH1 0x80 PUSH1 0x40 MSTORE PUSH1 0x4 CALLDATASIZE LT PUSH2 0x56 JUMPI PUSH1 0x0 CALLDATALOAD PUSH1 0xE0 SHR DUP1 PUSH4 0x405BF275 EQ PUSH2 0x5B JUMPI DUP1 PUSH4 0x6CD2C30A EQ PUSH2 0x9F JUMPI DUP1 PUSH4 0xB4797DA2 EQ PUSH2 0xC6 JUMPI DUP1 PUSH4 0xC214BE59 EQ PUSH2 0xED JUMPI JUMPDEST PUSH1 0x0 DUP1 REVERT JUMPDEST PUSH2 0x82 PUSH32 0x973BB64086F173EC8099B7ED3D43DA984F4A332E4417A08BC6A286E6402B0586 DUP2 JUMP JUMPDEST PUSH1 0x40 MLOAD PUSH1 0x1 PUSH1 0x1 PUSH1 0xE0 SHL SUB NOT SWAP1 SWAP2 AND DUP2 MSTORE PUSH1 0x20 ADD PUSH1 0x40 MLOAD DUP1 SWAP2 SUB SWAP1 RETURN JUMPDEST PUSH2 0x82 PUSH32 0x8AE85D849167FF996C04040C44924FD364217285E4CAD818292C7AC37C0A345B DUP2 JUMP JUMPDEST PUSH2 0x82 PUSH32 0xAAAEBEBA3810B1E6B70781F14B2D72C1CB89C0B2B320C43BB67FF79F562F5FF4 DUP2 JUMP JUMPDEST PUSH2 0x82 PUSH32 0x73AD2146B3D3A286642C794379D750360A2D53A3459A11B3E5D6CC900F55F44A DUP2 JUMP INVALID LOG2 PUSH5 0x6970667358 0x22 SLT KECCAK256 GAS LOG2 CREATE2 SWAP3 SGT PUSH17 0x81EAD46A485B4C0964F51D3FAAB2946CD3 SMOD ADDMOD 0x1F 0xB9 PUSH6 0xDB58CC826473 PUSH16 0x6C634300080E00330000000000000000 "
				},
				"gasEstimates": {
					"creation": {
						"codeDepositCost": "66000",
						"executionCost": "148",
						"totalCost": "66148"
					},
					"external": {
						"ERC1155_ASSET_CLASS()": "169",
						"ERC20_ASSET_CLASS()": "191",
						"ERC721_ASSET_CLASS()": "235",
						"ETH_ASSET_CLASS()": "213"
					},
					"internal": {
						"hash(struct LibAsset.Asset memory)": "infinite",
						"hash(struct LibAsset.AssetType memory)": "infinite"
					}
				},
				"methodIdentifiers": {
					"ERC1155_ASSET_CLASS()": "405bf275",
					"ERC20_ASSET_CLASS()": "6cd2c30a",
					"ERC721_ASSET_CLASS()": "c214be59",
					"ETH_ASSET_CLASS()": "b4797da2"
				}
			},
			"storageLayout": {
				"storage": [],
				"types": null
			},
			"userdoc": {
				"kind": "user",
				"methods": {},
				"version": 1
			}
		}
	}
}