{
	"contracts/NFTexchange/Lib/LibAsset.sol": {
		"LibAsset": {
			"abi": [
				{
					"inputs": [],
					"name": "ERC1155_ASSET_CLASS",
					"outputs": [
						{
							"internalType": "bytes4",
							"name": "",
							"type": "bytes4"
						}
					],
					"stateMutability": "view",
					"type": "function"
				},
				{
					"inputs": [],
					"name": "ERC20_ASSET_CLASS",
					"outputs": [
						{
							"internalType": "bytes4",
							"name": "",
							"type": "bytes4"
						}
					],
					"stateMutability": "view",
					"type": "function"
				},
				{
					"inputs": [],
					"name": "ERC721_ASSET_CLASS",
					"outputs": [
						{
							"internalType": "bytes4",
							"name": "",
							"type": "bytes4"
						}
					],
					"stateMutability": "view",
					"type": "function"
				},
				{
					"inputs": [],
					"name": "ETH_ASSET_CLASS",
					"outputs": [
						{
							"internalType": "bytes4",
							"name": "",
							"type": "bytes4"
						}
					],
					"stateMutability": "view",
					"type": "function"
				}
			],
			"devdoc": {
				"kind": "dev",
				"methods": {},
				"version": 1
			},
			"evm": {
				"assembly": "    /* \"contracts/NFTexchange/Lib/LibAsset.sol\":57:1282  library LibAsset {... */\n  dataSize(sub_0)\n  dataOffset(sub_0)\n  0x0b\n  dup3\n  dup3\n  dup3\n  codecopy\n  dup1\n  mload\n  0x00\n  byte\n  0x73\n  eq\n  tag_1\n  jumpi\n  mstore(0x00, 0x4e487b7100000000000000000000000000000000000000000000000000000000)\n  mstore(0x04, 0x00)\n  revert(0x00, 0x24)\ntag_1:\n  mstore(0x00, address)\n  0x73\n  dup2\n  mstore8\n  dup3\n  dup2\n  return\nstop\n\nsub_0: assembly {\n        /* \"contracts/NFTexchange/Lib/LibAsset.sol\":57:1282  library LibAsset {... */\n      eq(address, deployTimeAddress())\n      mstore(0x40, 0x80)\n      jumpi(tag_1, lt(calldatasize, 0x04))\n      shr(0xe0, calldataload(0x00))\n      dup1\n      0x405bf275\n      eq\n      tag_2\n      jumpi\n      dup1\n      0x6cd2c30a\n      eq\n      tag_3\n      jumpi\n      dup1\n      0xb4797da2\n      eq\n      tag_4\n      jumpi\n      dup1\n      0xc214be59\n      eq\n      tag_5\n      jumpi\n    tag_1:\n      0x00\n      dup1\n      revert\n        /* \"contracts/NFTexchange/Lib/LibAsset.sol\":303:376  bytes4 constant public ERC1155_ASSET_CLASS = bytes4(keccak256(\"ERC1155\")) */\n    tag_2:\n      tag_6\n      tag_7\n      jump\t// in\n    tag_6:\n      mload(0x40)\n      tag_8\n      swap2\n      swap1\n      tag_9\n      jump\t// in\n    tag_8:\n      mload(0x40)\n      dup1\n      swap2\n      sub\n      swap1\n      return\n        /* \"contracts/NFTexchange/Lib/LibAsset.sol\":151:220  bytes4 constant public ERC20_ASSET_CLASS = bytes4(keccak256(\"ERC20\")) */\n    tag_3:\n      tag_10\n      tag_11\n      jump\t// in\n    tag_10:\n      mload(0x40)\n      tag_12\n      swap2\n      swap1\n      tag_9\n      jump\t// in\n    tag_12:\n      mload(0x40)\n      dup1\n      swap2\n      sub\n      swap1\n      return\n        /* \"contracts/NFTexchange/Lib/LibAsset.sol\":80:145  bytes4 constant public ETH_ASSET_CLASS = bytes4(keccak256(\"ETH\")) */\n    tag_4:\n      tag_13\n      tag_14\n      jump\t// in\n    tag_13:\n      mload(0x40)\n      tag_15\n      swap2\n      swap1\n      tag_9\n      jump\t// in\n    tag_15:\n      mload(0x40)\n      dup1\n      swap2\n      sub\n      swap1\n      return\n        /* \"contracts/NFTexchange/Lib/LibAsset.sol\":226:297  bytes4 constant public ERC721_ASSET_CLASS = bytes4(keccak256(\"ERC721\")) */\n    tag_5:\n      tag_16\n      tag_17\n      jump\t// in\n    tag_16:\n      mload(0x40)\n      tag_18\n      swap2\n      swap1\n      tag_9\n      jump\t// in\n    tag_18:\n      mload(0x40)\n      dup1\n      swap2\n      sub\n      swap1\n      return\n        /* \"contracts/NFTexchange/Lib/LibAsset.sol\":303:376  bytes4 constant public ERC1155_ASSET_CLASS = bytes4(keccak256(\"ERC1155\")) */\n    tag_7:\n        /* \"contracts/NFTexchange/Lib/LibAsset.sol\":355:375  keccak256(\"ERC1155\") */\n      0x973bb64086f173ec8099b7ed3d43da984f4a332e4417a08bc6a286e6402b0586\n        /* \"contracts/NFTexchange/Lib/LibAsset.sol\":303:376  bytes4 constant public ERC1155_ASSET_CLASS = bytes4(keccak256(\"ERC1155\")) */\n      dup2\n      jump\t// out\n        /* \"contracts/NFTexchange/Lib/LibAsset.sol\":151:220  bytes4 constant public ERC20_ASSET_CLASS = bytes4(keccak256(\"ERC20\")) */\n    tag_11:\n        /* \"contracts/NFTexchange/Lib/LibAsset.sol\":201:219  keccak256(\"ERC20\") */\n      0x8ae85d849167ff996c04040c44924fd364217285e4cad818292c7ac37c0a345b\n        /* \"contracts/NFTexchange/Lib/LibAsset.sol\":151:220  bytes4 constant public ERC20_ASSET_CLASS = bytes4(keccak256(\"ERC20\")) */\n      dup2\n      jump\t// out\n        /* \"contracts/NFTexchange/Lib/LibAsset.sol\":80:145  bytes4 constant public ETH_ASSET_CLASS = bytes4(keccak256(\"ETH\")) */\n    tag_14:\n        /* \"contracts/NFTexchange/Lib/LibAsset.sol\":128:144  keccak256(\"ETH\") */\n      0xaaaebeba3810b1e6b70781f14b2d72c1cb89c0b2b320c43bb67ff79f562f5ff4\n        /* \"contracts/NFTexchange/Lib/LibAsset.sol\":80:145  bytes4 constant public ETH_ASSET_CLASS = bytes4(keccak256(\"ETH\")) */\n      dup2\n      jump\t// out\n        /* \"contracts/NFTexchange/Lib/LibAsset.sol\":226:297  bytes4 constant public ERC721_ASSET_CLASS = bytes4(keccak256(\"ERC721\")) */\n    tag_17:\n        /* \"contracts/NFTexchange/Lib/LibAsset.sol\":277:296  keccak256(\"ERC721\") */\n      0x73ad2146b3d3a286642c794379d750360a2d53a3459a11b3e5d6cc900f55f44a\n        /* \"contracts/NFTexchange/Lib/LibAsset.sol\":226:297  bytes4 constant public ERC721_ASSET_CLASS = bytes4(keccak256(\"ERC721\")) */\n      dup2\n      jump\t// out\n        /* \"#utility.yul\":7:130   */\n    tag_20:\n        /* \"#utility.yul\":100:123   */\n      tag_22\n        /* \"#utility.yul\":117:122   */\n      dup2\n        /* \"#utility.yul\":100:123   */\n      tag_23\n      jump\t// in\n    tag_22:\n        /* \"#utility.yul\":95:98   */\n      dup3\n        /* \"#utility.yul\":88:124   */\n      mstore\n        /* \"#utility.yul\":7:130   */\n      pop\n      pop\n      jump\t// out\n        /* \"#utility.yul\":136:370   */\n    tag_9:\n        /* \"#utility.yul\":235:239   */\n      0x00\n        /* \"#utility.yul\":273:275   */\n      0x20\n        /* \"#utility.yul\":262:271   */\n      dup3\n        /* \"#utility.yul\":258:276   */\n      add\n        /* \"#utility.yul\":250:276   */\n      swap1\n      pop\n        /* \"#utility.yul\":286:363   */\n      tag_25\n        /* \"#utility.yul\":360:361   */\n      0x00\n        /* \"#utility.yul\":349:358   */\n      dup4\n        /* \"#utility.yul\":345:362   */\n      add\n        /* \"#utility.yul\":336:342   */\n      dup5\n        /* \"#utility.yul\":286:363   */\n      tag_20\n      jump\t// in\n    tag_25:\n        /* \"#utility.yul\":136:370   */\n      swap3\n      swap2\n      pop\n      pop\n      jump\t// out\n        /* \"#utility.yul\":376:525   */\n    tag_23:\n        /* \"#utility.yul\":412:419   */\n      0x00\n        /* \"#utility.yul\":452:518   */\n      0xffffffff00000000000000000000000000000000000000000000000000000000\n        /* \"#utility.yul\":445:450   */\n      dup3\n        /* \"#utility.yul\":441:519   */\n      and\n        /* \"#utility.yul\":430:519   */\n      swap1\n      pop\n        /* \"#utility.yul\":376:525   */\n      swap2\n      swap1\n      pop\n      jump\t// out\n\n    auxdata: 0xa26469706673582212206e5ca50e018e601ed8c14c8bb262352926e77805523fb37de4821b19e1b3bbf064736f6c63430008070033\n}\n",
				"bytecode": {
					"linkReferences": {},
					"object": "6101ef610053600b82828239805160001a607314610046577f4e487b7100000000000000000000000000000000000000000000000000000000600052600060045260246000fd5b30600052607381538281f3fe73000000000000000000000000000000000000000030146080604052600436106100565760003560e01c8063405bf2751461005b5780636cd2c30a14610079578063b4797da214610097578063c214be59146100b5575b600080fd5b6100636100d3565b6040516100709190610172565b60405180910390f35b6100816100f7565b60405161008e9190610172565b60405180910390f35b61009f61011b565b6040516100ac9190610172565b60405180910390f35b6100bd61013f565b6040516100ca9190610172565b60405180910390f35b7f973bb64086f173ec8099b7ed3d43da984f4a332e4417a08bc6a286e6402b058681565b7f8ae85d849167ff996c04040c44924fd364217285e4cad818292c7ac37c0a345b81565b7faaaebeba3810b1e6b70781f14b2d72c1cb89c0b2b320c43bb67ff79f562f5ff481565b7f73ad2146b3d3a286642c794379d750360a2d53a3459a11b3e5d6cc900f55f44a81565b61016c8161018d565b82525050565b60006020820190506101876000830184610163565b92915050565b60007fffffffff000000000000000000000000000000000000000000000000000000008216905091905056fea26469706673582212206e5ca50e018e601ed8c14c8bb262352926e77805523fb37de4821b19e1b3bbf064736f6c63430008070033",
					"opcodes": "PUSH2 0x1EF PUSH2 0x53 PUSH1 0xB DUP3 DUP3 DUP3 CODECOPY DUP1 MLOAD PUSH1 0x0 BYTE PUSH1 0x73 EQ PUSH2 0x46 JUMPI PUSH32 0x4E487B7100000000000000000000000000000000000000000000000000000000 PUSH1 0x0 MSTORE PUSH1 0x0 PUSH1 0x4 MSTORE PUSH1 0x24 PUSH1 0x0 REVERT JUMPDEST ADDRESS PUSH1 0x0 MSTORE PUSH1 0x73 DUP2 MSTORE8 DUP3 DUP2 RETURN INVALID PUSH20 0x0 ADDRESS EQ PUSH1 0x80 PUSH1 0x40 MSTORE PUSH1 0x4 CALLDATASIZE LT PUSH2 0x56 JUMPI PUSH1 0x0 CALLDATALOAD PUSH1 0xE0 SHR DUP1 PUSH4 0x405BF275 EQ PUSH2 0x5B JUMPI DUP1 PUSH4 0x6CD2C30A EQ PUSH2 0x79 JUMPI DUP1 PUSH4 0xB4797DA2 EQ PUSH2 0x97 JUMPI DUP1 PUSH4 0xC214BE59 EQ PUSH2 0xB5 JUMPI JUMPDEST PUSH1 0x0 DUP1 REVERT JUMPDEST PUSH2 0x63 PUSH2 0xD3 JUMP JUMPDEST PUSH1 0x40 MLOAD PUSH2 0x70 SWAP2 SWAP1 PUSH2 0x172 JUMP JUMPDEST PUSH1 0x40 MLOAD DUP1 SWAP2 SUB SWAP1 RETURN JUMPDEST PUSH2 0x81 PUSH2 0xF7 JUMP JUMPDEST PUSH1 0x40 MLOAD PUSH2 0x8E SWAP2 SWAP1 PUSH2 0x172 JUMP JUMPDEST PUSH1 0x40 MLOAD DUP1 SWAP2 SUB SWAP1 RETURN JUMPDEST PUSH2 0x9F PUSH2 0x11B JUMP JUMPDEST PUSH1 0x40 MLOAD PUSH2 0xAC SWAP2 SWAP1 PUSH2 0x172 JUMP JUMPDEST PUSH1 0x40 MLOAD DUP1 SWAP2 SUB SWAP1 RETURN JUMPDEST PUSH2 0xBD PUSH2 0x13F JUMP JUMPDEST PUSH1 0x40 MLOAD PUSH2 0xCA SWAP2 SWAP1 PUSH2 0x172 JUMP JUMPDEST PUSH1 0x40 MLOAD DUP1 SWAP2 SUB SWAP1 RETURN JUMPDEST PUSH32 0x973BB64086F173EC8099B7ED3D43DA984F4A332E4417A08BC6A286E6402B0586 DUP2 JUMP JUMPDEST PUSH32 0x8AE85D849167FF996C04040C44924FD364217285E4CAD818292C7AC37C0A345B DUP2 JUMP JUMPDEST PUSH32 0xAAAEBEBA3810B1E6B70781F14B2D72C1CB89C0B2B320C43BB67FF79F562F5FF4 DUP2 JUMP JUMPDEST PUSH32 0x73AD2146B3D3A286642C794379D750360A2D53A3459A11B3E5D6CC900F55F44A DUP2 JUMP JUMPDEST PUSH2 0x16C DUP2 PUSH2 0x18D JUMP JUMPDEST DUP3 MSTORE POP POP JUMP JUMPDEST PUSH1 0x0 PUSH1 0x20 DUP3 ADD SWAP1 POP PUSH2 0x187 PUSH1 0x0 DUP4 ADD DUP5 PUSH2 0x163 JUMP JUMPDEST SWAP3 SWAP2 POP POP JUMP JUMPDEST PUSH1 0x0 PUSH32 0xFFFFFFFF00000000000000000000000000000000000000000000000000000000 DUP3 AND SWAP1 POP SWAP2 SWAP1 POP JUMP INVALID LOG2 PUSH5 0x6970667358 0x22 SLT KECCAK256 PUSH15 0x5CA50E018E601ED8C14C8BB2623529 0x26 0xE7 PUSH25 0x5523FB37DE4821B19E1B3BBF064736F6C6343000807003300 "
				},
				"gasEstimates": {
					"creation": {
						"codeDepositCost": "99000",
						"executionCost": "172",
						"totalCost": "99172"
					},
					"external": {
						"ERC1155_ASSET_CLASS()": "297",
						"ERC20_ASSET_CLASS()": "319",
						"ERC721_ASSET_CLASS()": "363",
						"ETH_ASSET_CLASS()": "341"
					},
					"internal": {
						"hash(struct LibAsset.Asset memory)": "infinite",
						"hash(struct LibAsset.AssetType memory)": "infinite"
					}
				},
				"methodIdentifiers": {
					"ERC1155_ASSET_CLASS()": "405bf275",
					"ERC20_ASSET_CLASS()": "6cd2c30a",
					"ERC721_ASSET_CLASS()": "c214be59",
					"ETH_ASSET_CLASS()": "b4797da2"
				}
			},
			"storageLayout": {
				"storage": [],
				"types": null
			},
			"userdoc": {
				"kind": "user",
				"methods": {},
				"version": 1
			}
		}
	}
}